:100000000C94DC030C9404040C9404040C94040479
:100010000C9404040C9404040C9404040C94040440
:100020000C9404040C9404040C947D050C94EF05CA
:100030000C9404040C9404040C9404040C94040420
:100040000C9404040C9404040C9404040C94040410
:100050000C9404040C9404040C9404040C94560DA5
:100060000C9404040C9404040C9404040C940404F0
:100070000C9404040C9404040C9404040C940404E0
:100080000C9404040C9404040C9404040C940404D0
:100090000C9404040C9404040C9404040C940404C0
:1000A0000C9404040C9404040C940404F0F89C8E46
:1000B0008783878E9CF8F00000FEFF030303030391
:1000C000070EFCF80000FEFF0303030303070EFC0A
:1000D000F80000FFFF00000000000000FFFF00002C
:1000E000FEFF8383838383C7EE7C380000F8FC0E19
:1000F00007030303070EFCF800003F7FE0C0808089
:10010000C0E07F3FFFFF01010101010101FFFF008E
:1001100000FFFF0C0C0C0C1C3E77E3C100007FFFBE
:10012000C0C0C0C0C0E0703F1F00001F3F70E0C0F3
:10013000C0C0E0703F1F00007FFFC1C1C1C1C1E36B
:10014000773E1C00001F3F70E0C0C0C0E0703F1F42
:10015000000000000001FFFF01000000D5F08D1439
:10016000A1C881CFD9F1AF2000FFFFFFFFFFFFFF44
:10017000FFFFFFFFFFFFFFFFFFFFFFFFFFFFFFFF8F
:100180001F1F1F1F1F1F1F1F1F1F1F1F1F1F1F1F7F
:100190001F1F1F1F1F1F1F03050505060702020360
:1001A0000207010604030304020403040407050113
:1001B0000304070107030507010601010204070301
:1001C00005070506030407050607010100000000F6
:1001D00000000101071C10100000000000001010BA
:1001E0001C07070D183060C080000101071C1010AB
:1001F000000000000103161C1C0701010080C06004
:1002000030180D07071C1C16030100000000101019
:100210001C07070D18B0E04000000101071C1C1668
:1002200003010000000010101C070101000040E065
:10023000B0180D07071C1010000000000103161C69
:100240001C080B0002020201000904000001020266
:100250000000052400100105240101010424020608
:100260000524060001070581031000400904010070
:10027000020A000000070502024000000705830291
:100280004000000403090412010002EF0201404192
:1002900023368000010102030141726475696E6FAB
:1002A000204C4C430041726475696E6F204C656F41
:1002B0006E6172646F0000000000003E5B4F5B3EA9
:1002C0003E6B4F6B3E1C3E7C3E1C183C7E3C181C1B
:1002D000577D571C1C5E7F5E1C00183C1800FFE712
:1002E000C3E7FF0018241800FFE7DBE7FF30483AB8
:1002F000060E2629792926407F050507407F05251A
:100300003F5A3CE73C5A7F3E1C1C08081C1C3E7FA1
:1003100014227F22145F5F005F5F06097F017F0068
:100320006689956A606060606094A2FFA294080488
:100330007E040810207E201008082A1C08081C2AA9
:1003400008081E101010100C1E0C1E0C30383E3801
:1003500030060E3E0E06000000000000005F0000A8
:100360000007000700147F147F14242A7F2A122319
:100370001308646236495620500008070300001C29
:100380002241000041221C002A1C7F1C2A08083E32
:100390000808008070300008080808080000606045
:1003A0000020100804023E5149453E00427F4000B3
:1003B00072494949462141494D331814127F10278B
:1003C000454545393C4A49493141211109073649DA
:1003D000494936464949291E0000140000004034AE
:1003E00000000008142241141414141400412214B3
:1003F0000802015909063E415D594E7C1211127CDA
:100400007F494949363E414141227F4141413E7F3A
:10041000494949417F090909013E414151737F081A
:1004200008087F00417F41002040413F017F0814C0
:1004300022417F404040407F021C027F7F04081021
:100440007F3E4141413E7F090909063E4151215EFF
:100450007F09192946264949493203017F01033F93
:100460004040403F1F2040201F3F4038403F631422
:1004700008146303047804036159494D43007F4124
:1004800041410204081020004141417F0402010261
:100490000440404040400003070800205454784086
:1004A0007F284444383844444428384444287F381A
:1004B0005454541800087E090218A4A49C787F089C
:1004C00004047800447D40002040403D007F102817
:1004D000440000417F40007C047804787C080404D8
:1004E000783844444438FC1824241818242418FC70
:1004F0007C08040408485454542404043F44243C15
:100500004040207C1C2040201C3C4030403C442883
:100510001028444C9090907C4464544C440008361D
:10052000410000007700000041360800020102048B
:10053000023C2623263C1EA1A161123A4040207AAB
:1005400038545455592155557941215454784121F5
:100550005554784020545579400C1E52721239552A
:100560005555593954545459395554545800004527
:100570007C410002457D420001457C40F029242950
:10058000F0F0282528F07C545545002054547C5424
:100590007C0A097F49324949493232484848323257
:1005A0004A4848303A4141217A3A42402078009DF9
:1005B000A0A07D39444444393D4040403D3C24FFA7
:1005C0002424487E4943662B2FFC2F2BFF0929F654
:1005D00020C0887E090320545479410000447D41A5
:1005E0003048484A32384040227A007A0A0A727DFE
:1005F0000D19317D2629292F282629292926304819
:100600004D4020380808080808080808382F10C886
:10061000ACBA2F102834FA00007B000008142A140A
:100620002222142A14089500220095AA005500AA37
:10063000AA55AA55AA000000FF00101010FF0014D0
:100640001414FF001010FF00FF1010F010F014142D
:1006500014FC001414F700FF0000FF00FF1414F452
:1006600004FC141417101F10101F101F1414141F53
:1006700000101010F0000000001F101010101F10CC
:10068000101010F010000000FF10101010101010CB
:100690001010FF10000000FF140000FF00FF00001A
:1006A0001F10170000FC04F414141710171414F48E
:1006B00004F40000FF00F714141414141414F700C9
:1006C000F7141414171410101F101F141414F4141A
:1006D0001010F010F000001F101F0000001F140089
:1006E0000000FC140000F010F01010FF10FF1414B4
:1006F00014FF141010101F00000000F010FFFFFF87
:10070000FFFFF0F0F0F0F0FFFFFF0000000000FF3F
:10071000FF0F0F0F0F0F38444438447C2A2A3E1431
:100720007E02020606027E027E026355494163385C
:1007300044443C04407E201E2006027E020299A50D
:10074000E7A5991C2A492A1C4C7201724C304A4D6B
:100750004D303048784830BC625A463D3E494949A0
:10076000007E0101017E2A2A2A2A2A44445F444449
:1007700040514A444040444A51400000FF0103E0D8
:1007800080FF000008086B6B083612362436060F0F
:10079000090F06000018180000001010003040FF7C
:1007A0000101001F01011E00191D1712003C3C3CF5
:1007B0003C0000000000D41111241FBECFEFDAE08E
:1007C000DEBFCDBF11E0A0E0B1E0E4E3F7E202C09C
:1007D00005900D92AC34B107D9F726E0ACE4B1E056
:1007E00001C01D92AC36B207E1F713E0CCEDD3E0C7
:1007F00004C02197FE010E948D13CB3DD107C9F79C
:100800000E94A00D0C9498130C9400002091E80114
:10081000211103C08FEF9FEF08955FB7F89422E096
:100820002093E9002091F20030E01216130614F430
:1008300021E030E0422FFC0184E6415038F0289856
:10084000809312069091F1009193F7CF2115310515
:1008500021F08091F200882319F05FBFC90108954B
:100860008BE68093E800F9CF2FB7F89483E080936C
:10087000E9009091E800892F807295FF04C0909163
:10088000F20080E4891B2FBF089580910A06811130
:100890000DC082E08093060684E0809307061092E4
:1008A00009061092080681E080930A0686E096E029
:1008B0000895CF93DF931F92CDB7DEB76983DC0134
:1008C000ED91FC910280F381E02D41E050E0BE010A
:1008D0006F5F7F4F09950F90DF91CF91089583E06F
:1008E0008093E9008091F200882319F08AE38093D5
:1008F000E80008950E94340490E00895CF93DF93B8
:100900001F92CDB7DEB7FC018485958597FD05C0A4
:100910002FEF3FEF358724870BC0CE0101960E9451
:100920000604019719F4898190E002C08FEF9FEFD0
:100930000F90DF91CF9108950F931F93CF93DF9383
:100940001F92CDB7DEB78C01FC018485958597FF9A
:100950000EC0CE0101960E940604019719F4898108
:1009600090E002C08FEF9FEFF80195878487F80130
:10097000848595850F90DF91CF911F910F910895F8
:10098000FC018485958597FD0BC09FB7F89482E0A4
:100990008093E9008091F2009FBF90E00196089556
:1009A0009FB7F89482E08093E9008091F2009FBFA6
:1009B00090E00895409102065091030620910006B0
:1009C0003091010642175307B4F49091E8009570F6
:1009D000E1F39091E80092FD19C08093F1008091BD
:1009E00002069091030601968F739927892B19F4BB
:1009F0008EEF8093E80080910206909103060196A5
:100A0000909303068093020681E0089580E00895A4
:100A1000DF92EF92FF920F931F93CF93DF93D82E25
:100A20008A017B01E40EF51EEB01CE15DF0571F0A6
:100A3000D7FE03C0FE01849101C088810E94DA04C0
:100A400021968111F2CF8FEF9FEF01C0C801DF9196
:100A5000CF911F910F91FF90EF90DF9008950F932A
:100A60001F93CF93DF931F92CDB7DEB782E08983C8
:100A700042E450E061E472E080E80E9408050E94D0
:100A80004504DC0112960D911C9113970115110577
:100A900089F0D801ED91FC910280F381E02DBE0137
:100AA0006F5F7F4FC801099597FD04C0F80100856D
:100AB0001185ECCF89810F90DF91CF911F910F911C
:100AC0000895615030F02091F100FC0120830196DF
:100AD000F8CF289884E6809312060895E9EEF1E0B5
:100AE000A0E0B8E000800EBC8111012C1197A0FDA0
:100AF000FDCF0192B9F70DB408951F920F920FB672
:100B00000F9211248F939F938091E1009091E100C7
:100B1000937F9093E10083FF0FC01092E90091E072
:100B20009093EB001092EC0092E39093ED00109202
:100B3000E80198E09093F00082FF20C093E090934A
:100B4000E9009091F200992319F09AE39093E8005C
:100B500090910506992339F0909105069150909354
:100B60000506992389F190911206992339F0909105
:100B70001206915090931206992341F184FF10C000
:100B80008091E2008E7E81608093E2008091E1009E
:100B90008F7E8093E1008091E7018E7E806111C09D
:100BA00080FF16C08091E2008E7E80618093E2001B
:100BB0008091E1008E7E8093E1008091E7018E7E3E
:100BC00081608093E70104C05D9ACDCF289AD6CF8B
:100BD0009F918F910F900FBE0F901F9018951F92AD
:100BE0000F920FB60F921124CF92DF92EF92FF92E5
:100BF0000F931F932F933F934F935F936F937F9325
:100C00008F939F93AF93BF93EF93FF93CF93DF9314
:100C1000CDB7DEB76C97DEBFCDBF1092E9008091F3
:100C2000E80083FFFBC168E0CE0145960E946105A4
:100C300082EF8093E8008D8987FF05C09091E800DE
:100C400090FFFCCF03C09EEF9093E800982F907622
:100C500009F0C6C09E894F89588D2F89F88C911153
:100C60000CC0803829F48091E6018093F10002C025
:100C70001092F1001092F10045C1913051F48111B0
:100C800041C14130510509F03DC18091E6018D7FA0
:100C90000BC0933061F4811135C14130510509F029
:100CA00031C18091E60182608093E6012BC19530CD
:100CB00049F48091E80080FFFCCF822F8068809308
:100CC000E30020C1963009F05EC00B8D1C8D22E040
:100CD0001092E9001092030610920206F21232C03E
:100CE00010920106109200060E942F0599E0BE01A5
:100CF0006F5F7F4FDB01E92F1D92EA95E9F799833A
:100D0000FA8291E09E8390EA98879AEF99872091E2
:100D1000020630910306275F3F4F3C832B838D8370
:100D20001092E90010920306109202061093010639
:100D30000093000649E050E080E00E9408050E9410
:100D40002F05E0C010930106009300060E944504A1
:100D5000DC0112960D911C9113970115110509F4F0
:100D6000BBC0D801ED91FC910480F581E02DBE015E
:100D70006B5E7F4FC8010995009709F0C7C0F80165
:100D800000851185EACF973009F445C1983021F4E8
:100D900081E08093F100B6C0993009F0B3C0837050
:100DA00009F039C1EFE1F1E081E031E096E3208123
:100DB000211109C08EE78093EA001092EA008F8922
:100DC0008093E8019FC08093E9003093EB0021916C
:100DD0002093EC009093ED008F5F873041F7EACFCE
:100DE0008B8D9C8D1092E9001092030610920206E2
:100DF0009093010680930006898D811153C08E89DE
:100E00009D89913A49F4813209F005C147E050E0EB
:100E10006AE071E080E0BBC0913209F0FCC083322F
:100E200069F48F89988DA0E0B0E0809306019093DB
:100E30000701A0930801B093090164C0803269F4EE
:100E40008091E80082FFFCCF67E08AE091E00E9499
:100E500061058BEF8093E80055C0823209F052C0E3
:100E60008F8980931101EEEFFFE7859194918B3F7D
:100E70009C4D19F0E0E0F8E002C0EEEFFAE080915E
:100E80000A0190910B01A0910C01B0910D01803BE2
:100E90009440A105B10509F09EC08091110180FF29
:100EA00079C099C00E944504FC010281138101159B
:100EB000110509F4B0C0D801ED91FC910190F081C9
:100EC000E02DBE016B5E7F4FC801099581111AC0EC
:100ED000F80100851185EBCFF1E0FF1609F44EC053
:100EE000F3E0FF1298C08F89882309F44AC082304A
:100EF00089F440E860E185EA92E00E949F1188232E
:100F000009F489C08EEF8093E80088C0181619068E
:100F1000CCF381C0813029F440E86BE089E992E0AC
:100F2000ECCF833009F077C00E944504DC011296B3
:100F3000ED90FC9013978E010F5F1F4F6801E11435
:100F4000F10479F0D701ED91FC910680F781E02D55
:100F5000B801C7010995080F111DF701E084F1845C
:100F6000EECFD8011C92F60101900020E9F73197ED
:100F7000BF016C197D0940E0C601BFCF67E872E090
:100F800002C063E872E0FB01449150E080E80E94F7
:100F90000805B8CFEE3F2AE0F20751F08081918139
:100FA0008737A7E79A0721F09093FF0A8093FE0AFC
:100FB00087E797E7918380838091600080930406A0
:100FC0009BE088E10FB6F894A895809360000FBE6F
:100FD0009093600097CF808191818737974709F080
:100FE00091CFA89580916000886180936000809186
:100FF000040680936000EE3FBAE0FB0739F0809171
:10100000FE0A9091FF0A918380837CCF1092FF0AA1
:101010001092FE0A77CF81E28093EB006C960FB6B8
:10102000F894DEBF0FBECDBFDF91CF91FF91EF915E
:10103000BF91AF919F918F917F916F915F914F91F0
:101040003F912F911F910F91FF90EF90DF90CF90E4
:101050000F900FBE0F901F9018958F929F92AF9296
:10106000BF92CF92DF92EF92FF926B017C010E94C0
:10107000310D4B015C01C114D104E104F104F1F024
:101080000E94310DDC01CB0188199909AA09BB091D
:10109000883E9340A105B10570F321E0C21AD10842
:1010A000E108F10888EE880E83E0981EA11CB11CAF
:1010B000C114D104E104F10419F7DDCFFF90EF90E2
:1010C000DF90CF90BF90AF909F908F9008958F92B8
:1010D0009F92AF92BF92CF92DF92EF92FF920F93C7
:1010E0001F93CF93DF936C017B018A0180911101E3
:1010F000882309F45CC08091E801882309F457C073
:101100008091E70180FF05C08091E00082608093BC
:10111000E000E801B12C8AEFA82E93E0892E2AE3A3
:10112000922E209711F4BB20D9F10E943404811132
:101130000AC0AA94AA20D9F161E070E080E090E0B2
:101140000E942D08EECF282F30E0C217D3070CF4F1
:101150008C2F9FB7F8948092E9002091E80025FF3A
:101160001DC0282F30E0C21BD30BF701815020F0A7
:1011700041914093F100FACFE20EF31EBB2019F02B
:101180009092E8000AC08091E80085FD07C0909227
:10119000E800BB24B394209709F0B12C9FBFC1CFC6
:1011A0005D9884E6809305061016110644F081E0F0
:1011B00090E0F6019383828380E090E001C0C80153
:1011C000DF91CF911F910F91FF90EF90DF90CF9023
:1011D000BF90AF909F908F900895CF92DF92EF9243
:1011E000FF920F931F93CF93DF936C017A018B01D2
:1011F000C0E0D0E0CE15DF0581F0D8016D918D0102
:10120000D601ED91FC910190F081E02DC601099588
:10121000892B11F02196EECF7E01C701DF91CF918E
:101220001F910F91FF90EF90DF90CF9008952F9234
:101230003F924F925F926F927F928F929F92AF9266
:10124000BF92CF92DF92EF92FF920F931F93CF93B3
:10125000DF93CDB7DEB728970FB6F894DEBF0FBE89
:10126000CDBF9D838C836A30A1F4DC0155962C910F
:10127000559751968D919C915297B8E02B9F800D78
:10128000911D1124EC81FD81928B818B108A178630
:10129000C6C06D3009F4C3C0AC81BD811F968D916D
:1012A0009C91509780389105BCF0EC81FD81258997
:1012B000422F50E087859089F6E02F9F800D911D89
:1012C0001124AC81BD8150969C938E931F975696A6
:1012D0002C9121118FC0A3C0EC81FD81E188F2889F
:1012E000F0E4EF16F1040CF7AC81BD815596BC918A
:1012F000BE839C01E5E0BE9F200D311D1124121616
:1013000013069CF6CB2ED12C970158E0B59F200DEB
:10131000311D11241216130644F6AC81BD8154967A
:101320005C90549753964C90B5E06B9FF00111245C
:101330009F012A543D4F38872F83912C30E1732E23
:10134000EF81F8858490F5E09F1201C0812C870120
:1013500028E0622E80FE02C0542D01C0552D51118F
:1013600003C0541409F433C09C01F52FF170322EE0
:10137000622F681B4E81641750F5B801A62FA01B81
:101380005E81A51708F520383105D8F46034710561
:10139000C0F45B01A501E1E041FDE4E040FDEE0F9A
:1013A00042FDE295487F749ED0011124A30DBA83BB
:1013B000A983A751BE4FBC90BE2AF11101C0BE2621
:1013C000BC926F5F7F4FDACF2F5F3F4FD0CF8694B5
:1013D0006A940C0D1D1D6110BDCF93948C0D9D1D45
:1013E0002F8138852F5F3F4F38872F8336E0931248
:1013F000A7CF5BCF6AEF64039001659F300D112486
:1014000020583F4F2817390754F48C819D81DC0107
:10141000ED91FC910190F081E02D6AE0099581E069
:1014200090E028960FB6F894DEBF0FBECDBFDF91D7
:10143000CF911F910F91FF90EF90DF90CF90BF90D1
:10144000AF909F908F907F906F905F904F903F9064
:101450002F9008950895089580E090E008950E94E7
:1014600093132D9A0895BC0180E090E00C942D0810
:101470008FB18095807F669B88601C9B84600895F7
:101480000C94EC122F923F924F925F926F927F9248
:101490008F929F92AF92BF92CF92DF92EF92FF9284
:1014A0000F931F93CF93DF93CDB7DEB760970FB63F
:1014B000F894DEBF0FBECDBFEB82E22EF12CF88A8E
:1014C000EF869701280F391F121613060CF03EC144
:1014D000803891050CF03AC19B01200F311D121686
:1014E00013060CF033C1603471050CF02FC1DB0121
:1014F00077FF04C0AA27BB27A61BB70BA770BB2783
:101500009B0177FF02C0295F3F4FE3E035952795A8
:10151000EA95E1F777FF08C02150310968E070E0F3
:10152000FB01EA1BFB0BDF01E02FE695E695E69554
:10153000F0E0077009F03196B9017695762F6627AD
:1015400077956795680F791F67517E4F7F01E20E8F
:10155000F31EFF82EE82C12CD12CE8E0F0E08F0177
:101560000A1B1B0B1D830C83EE80FF80E216F30623
:1015700009F4ECC02830310509F4E8C02F3F0FEF23
:1015800030070CF4D6C08B0100581F4F198708870D
:101590005B014B013B012C0118011A83098300E018
:1015A00010E0EF84F8880E151F050CF0C2C0E0E8CB
:1015B0004E16510409F4BDC057FC9FC02F3FFFEFEA
:1015C0003F0709F4BFC07801EC0CFD1CEB81E13052
:1015D000A9F4F701E40FF51FE491EE2EF12CF701C9
:1015E0000A2E02C0EE0FFF1F0A94E2F7FB87EA877C
:1015F000F401E080FA85EF2AF4012CC0FB81F1119F
:1016000016C0F701E40FF51FE491F0E00A2E02C0C6
:10161000EE0FFF1F0A94E2F77F01E094F094FB863F
:10162000EA86F501E080FA85EF22F50113C0F701A3
:10163000E40FF51FE491F0E07F010A2E02C0EE0CEA
:10164000FF1C0A94E2F7FB86EA86F301E080FA8544
:10165000EF26F301E082109709F44FC027303105DF
:1016600009F44BC07801EC0CFD1CFB81F130B1F4A6
:10167000F701E40FF51FE491F0E07F010C8002C058
:10168000F594E7940A94E2F7FB86EA86E885F98503
:10169000E080FA85EF2AE885F9852EC0FB81F111FB
:1016A00018C0F701E40FF51FE491F0E00C8002C0D0
:1016B000F595E7950A94E2F77F01E094F094FB86B4
:1016C000EA86E981FA81E080FA85EF22E981FA81F0
:1016D00013C0F701E40FF51FE491F0E07F010C80E7
:1016E00002C0F594E7940A94E2F7FB86EA86F101DA
:1016F000E080FA85EF26F101E0820F5F1F4FE88559
:10170000F9853196F987E887E981FA813196FA837C
:10171000E983FFEF2F1A3F0AEFEF4E1A5E0AFFEF41
:101720006F1A7F0AEFEF8E1A9E0AFFEFAF1ABF0AF9
:1017300038CF2F5F3F4F60587F4FEF84F888CE0C33
:10174000DF1C12CF109709F08DCFD7CF60960FB660
:10175000F894DEBF0FBECDBFDF91CF911F910F91E7
:10176000FF90EF90DF90CF90BF90AF909F908F90C1
:101770007F906F905F904F903F902F900895DF92F1
:10178000EF92FF920F931F93CF93DF93853010F06A
:1017900080E0A5C06A30E0F7C62FD0E02AE0829F43
:1017A000C00DD11D1124FE01E258FE4F9081DE01D3
:1017B000A055BE4F7D01911170C09C9191116DC0DB
:1017C00021E02083C45BDE4F9881992309F38430A4
:1017D00009F42C93162F082F913011F0943081F4D6
:1017E00089858D7FD82EF1E08F130AC06FEF610FCE
:1017F00081E0800F0E94BF0B882311F0F701D08297
:101800008881813011F0843071F48A85823009F446
:1018100047C0843009F444C08881813009F44CC049
:10182000843009F449C088818250823080F48B85ED
:10183000823011F0843079F461E0610F81E0800F33
:101840000E94BF0B882319F081E0D7018C93888117
:101850008250823010F58A858D7FD82EB1E08B13AF
:101860000DC0612F81E0800F0E94BF0B882311F013
:10187000F701D08288818250823078F4898181306A
:1018800011F0843051F461E0610F802F0E94770CD9
:10189000882319F081E0D7018C93F70180811FC064
:1018A000612F81E0800F0E94BF0B882309F4B4CF21
:1018B00081E0D7018C93B0CFFE01319780818250B7
:1018C000823008F0B0CF6FEF610F802F0E94770C4D
:1018D000882309F4A8CF81E0F7018083A4CFDF91AA
:1018E000CF911F910F91FF90EF90DF900895DF92BD
:1018F000EF92FF920F931F93CF93DF93853010F0F9
:1019000080E0A7C06A30E0F7C62FD0E02AE0829FCF
:10191000C00DD11D1124FE01E258FE4F9081DE0161
:10192000A055BE4F7D01911103C09C91992319F0E0
:10193000F70180818EC091E09083C45BDE4F988177
:101940009923F1F2162F082F923011F0943089F478
:10195000FE013B9780818250823058F46FEF610F17
:101960008FEF800F0E94770C882319F081E0D70158
:101970008C938881823011F0843061F4FE013A97B3
:1019800080818130C1F18430B1F188818230F1F100
:101990008430E1F188818D7F813091F4FE013997A7
:1019A0008081813011F0843079F461E0610F8FEF34
:1019B000800F0E94770C882319F081E0F701808363
:1019C00088818D7F8130A1F4FE013A978081825019
:1019D000823050F4612F8FEF800F0E94770C8823A4
:1019E00019F081E0D7018C9388818D7F813009F1D6
:1019F000D7018C912EC0612F8FEF800F0E94770C42
:101A0000882319F281E0F7018083BFCFFE0131976F
:101A100080818D7FD82EB1E08B13BCCF6FEF610F2B
:101A2000802F0E94BF0B882309F4B4CFD701DC922A
:101A3000B1CF8981823011F08430D1F661E0610F3D
:101A4000802F0E94BF0B882399F281E0F7018083E9
:101A5000CFCFDF91CF911F910F91FF90EF90DF904B
:101A600008953FB7F8948091680690916906A09117
:101A70006A06B0916B0626B5A89B05C02F3F19F0EA
:101A80000196A11DB11D3FBFBA2FA92F982F8827FE
:101A9000820F911DA11DB11DBC01CD0142E0660F59
:101AA000771F881F991F4A95D1F708951F920F92AB
:101AB0000FB60F9211242F933F938F939F93AF9361
:101AC000BF938091630690916406A0916506B091E2
:101AD00066063091670623E0230F2D3720F4019628
:101AE000A11DB11D05C026E8230F0296A11DB11D41
:101AF000209367068093630690936406A09365061F
:101B0000B09366068091680690916906A0916A0676
:101B1000B0916B060196A11DB11D8093680690934C
:101B20006906A0936A06B0936B06BF91AF919F912F
:101B30008F913F912F910F900FBE0F901F9018958E
:101B4000CF93DF93CDB7DEB728970FB6F894DEBFFB
:101B50000FBECDBF789484B5826084BD84B58160AA
:101B600084BD85B5826085BD85B5816085BD809168
:101B70006E00816080936E001092810080918100E0
:101B800082608093810080918100816080938100D8
:101B900080918000816080938000809191008260BC
:101BA0008093910080919100816080939100809159
:101BB00090008160809390008091C1008460809348
:101BC000C1008091C10082608093C1008091C100FA
:101BD00081608093C1008091C30081608093C300C5
:101BE0008091C00082608093C0008091C2008160BB
:101BF0008093C20080917A00846080937A00809103
:101C00007A00826080937A0080917A00816080936C
:101C10007A0080917A00806880937A001092E801BF
:101C20001092E6011092E7018091D70081608093C5
:101C3000D70080EA8093D80089B5806189BD89B5D5
:101C4000826089BD09B400FEFDCF61E070E080E0F4
:101C500090E00E942D088091D8008F7C8061809355
:101C6000D8008091E000807F8093E0008091E100C7
:101C70008E7E8093E1008DE08093E200559A209A59
:101C800081EC80937C0085B1806F85B984B1877EBB
:101C900084B984B1876E84B95E9A5F988AB1806D89
:101CA0008AB9769A6E9881B3806F81BB899880B328
:101CB0008D7080BB80E58CBD81E08DBD85E090E0BE
:101CC0000E94330A5F9A85E090E00E94330A5E9892
:101CD0005C98ECE5F1E089E691E024912EBD0000EE
:101CE0000DB407FEFDCF31968E179F07B1F75C9AB2
:101CF00081E8809364008091650081608093650035
:101D000080E00E946E050E94380A87FF24C05C981C
:101D100085EA8EBD00000DB407FEFDCF5C9A2E98BB
:101D20002F982D988091640080628093640081E0F8
:101D300083BF889513BEFCCF2D980E94380A847803
:101D4000843871F00E94380A8471843131F188EC52
:101D500090E00E94330A0E94380A82FDEDCF3AC01B
:101D60000E94310A88EC90E00E94330A2F9882E0AA
:101D700090E00E94EC128F3F29F06FEF82E090E03C
:101D80000E94F41284EF91E00E94330A2F9A0E947D
:101D9000380A84788438D9F3D5CF0E94310A88EC88
:101DA00090E00E94330A2E9882E090E00E94EC12AC
:101DB000882329F060E082E090E00E94F41284EF32
:101DC00091E00E94330A2E9A0E94380A847184316D
:101DD000D9F3BDCF0E94310A82E090E00E94400A10
:101DE000882319F03E9A3F9A02C03E983F9881E0BE
:101DF00090E00E94400A182F147081FF41C0111119
:101E00002E9851EFC52EDD24DA940E94380A86FF01
:101E100005C02E9A2F9A0E94310A32C0112331F048
:101E200024E0C216D10411F42E9A2F9881E00E946A
:101E30006E05EE24E39400E128E54CEA50E0B6019B
:101E400084E190E00E94420A80E00E946E058FE0EB
:101E500090E00E94330A3FEFC31AD30A89E1C81603
:101E6000D10499F6112311F02F9A2D9880E991E071
:101E70000E94330A0E94310A89EE95E00E94051201
:101E800082E390E00E94330A0E94380A8111F8CF61
:101E9000809164008E7F8093640080917A008064DA
:101EA00080937A0080917A0086FDFCCF00917800C3
:101EB000109179000E94310D20E030E09801112747
:101EC0000027600F711F821F931F20916400216003
:101ED00020936400611571058105910511F00E9440
:101EE000E31281E28093F40518E0412E512C612C1D
:101EF000712C12E3B8E1FB2E8FB7F8944091630682
:101F00005091640660916506709166068FBF80915E
:101F1000F505942F981B892F9091F605992329F0A8
:101F20008093F7051092F605E6C19091F4058917A4
:101F300048F48F5F891708F0DEC181E083BF889580
:101F400013BED9C181E08093F6054093F5058091D9
:101F5000F0059091F10501969093F1058093F005BD
:101F60008091F2058093F3050E94380A8093F20570
:101F7000C0900401D0900501EFEFCE1ADE0AD09296
:101F80000501C0920401E0EBF1E0212F11922A95A6
:101F9000E9F700E0EEE7F1E0212F11922A95E9F749
:101FA000602F80E00E94BF0B0F5F0A3099F780918D
:101FB000E4019091E501E0EBF1E0ACE48A2EA1E0D0
:101FC0009A2ED4012191222311F01C920196119690
:101FD00022EE31E02E173F07A9F79093E501809399
:101FE000E401C11045C088E0E6E1F1E0DE011196B0
:101FF00001900D928A95E1F710924C0110925601D2
:102000001092600110926A0110927401ECE4F1E008
:102010008181819331E0EE37F307D1F77CE4C72E5D
:1020200071E0D72E0E949512A30192010E94021323
:10203000E1E0F0E0EC0FFD1FE60FF71F8081F601F5
:102040008187FAE0CF0ED11C2EE7C21621E0D2061E
:1020500049F780910201909103018230910514F0BB
:10206000019702C080E090E0909303018093020109
:102070008091F30583FD04C08091F20583FD43C187
:10208000C090E201D090E30132E0C316D10424F005
:1020900081E0C81AD10802C0C12CD12CD092E30132
:1020A000C092E201C114D10409F064C00E94380A50
:1020B00086FF15C080910201909103018230910545
:1020C00014F0019702C080E090E0909303018093A8
:1020D000020184E090E09093E3018093E2010E948A
:1020E000380A85FF15C08091020190910301873065
:1020F000910514F4019602C088E090E090930301EA
:102100008093020184E090E09093E3018093E201E8
:102110000E94380A87FF15C080910001909101014B
:102120008230910524F06C01E1E0CE1AD108D09202
:102130000101C092000184E090E09093E30180935C
:10214000E2010E94380A84FF15C08091000190913D
:1021500001018330910514F4019602C084E090E0FF
:10216000909301018093000184E090E09093E3015B
:102170008093E20180E0E9EEF1E081118FEF00242D
:1021800081938193819381930394D1F71092FB05FE
:102190001092FA051092F9051092F80562E0C62E29
:1021A000D12C140156E6A52EB12CF10141911F014D
:1021B000F49EA001112447535E4FEE24E3940DE0FA
:1021C0002CE0B601C5010E94420AFBE0AF1AB1083B
:1021D00028EFA2162FEFB20641F73AE0830E911CCA
:1021E0008CE0C80ED11C9EE3C916D104D1F68091B3
:1021F0000001909101012CE0289FB001299F700DF2
:1022000011246E5F7F4F809102019091030128E0BD
:1022100030E0281B390B4BE0429FC001439F900DDB
:10222000112422E0E22E27E149E651E003960E94C4
:10223000420AA090E401B090E501C50168EE73E0A8
:102240000E946513CB013AE0C32ED12CB6010E9447
:10225000651345E0942E989EA001999E500D11247F
:1022600049565E4FEE24E39403E025E060E370E01E
:1022700088E790E00E94420AC50164E670E00E948F
:102280006513CB01B6010E946513989EA001999E2B
:10229000500D112449565E4F25E064E370E088E755
:1022A00090E00E94420AC501B6010E9465135C01DC
:1022B000CB01B6010E946513989EA001999E500D16
:1022C000112449565E4F25E068E370E088E790E00E
:1022D0000E94420A9A9CA0019B9C500D11244956D1
:1022E0005E4F25E06CE370E088E790E00E94420AD0
:1022F00080E00E946E0580E090E0892B09F4FCCD1F
:102300000E940000F6CDE0910201F09103012091BE
:102310000001309101014AE0429FC001439F900DAE
:102320001124DF01A80FB91FA45BBE4F2C91E80F49
:10233000F91FE35BFE4F80818C932083A1CEDF9257
:10234000EF92FF920F931F93CF93DF93D82EF92E26
:10235000E42E062F10E0C8010196880F0E94DA04CF
:1023600083E00E94DA04CD2DDF2D0C0F1D1FC01756
:10237000D10789F0E7FE03C0FE01849101C0888186
:102380000E94DA04F82E80E00E94DA048F21219660
:102390008111EDCF01C081E0DF91CF911F910F91AD
:1023A000FF90EF90DF900895E3E1F6E01382128250
:1023B00088EE93E0A0E0B0E084839583A683B783A2
:1023C00089E291E0918380838FEF9FEF95878487E7
:1023D000E9EEF5E0138212821186128680E183878E
:1023E0001086178215868BE391E09183808389E4C0
:1023F00091E095838483108A1786128A118A81E07E
:10240000838B148A858B168A08950F931F93CF931D
:10241000DF938C0181E090E00E94400A80FF32C08F
:102420008AE090E00E94400A9FEF980F9E3F50F58F
:1024300022E330E0D80150963C932E931F9728E377
:1024400030E052963C932E935197CBE0D0E0D801E8
:10245000ED91FC910190F081E02D682FC801099564
:10246000CE010E94400A2196C131D10581F780E05A
:102470000E946E0588EE93E0DF91CF911F910F913E
:102480000C94330ADF91CF911F910F910895049717
:102490000C9405128F929F92AF92BF92CF92DF92CF
:1024A000EF92FF92CF93DF93EC01688179818A816B
:1024B0009B81611571058105910521F464E279ED37
:1024C0008BE597E02DE133EF41E050E00E940213ED
:1024D00049015A019B01AC01A7EAB1E40E94211312
:1024E0006B017C01ACEEB4EFA50194010E942F13A7
:1024F000DC01CB018C0D9D1DAE1DBF1DB7FF03C0C0
:102500000197A109B04888839983AA83BB83BC0142
:10251000CD019F77DF91CF91FF90EF90DF90CF902B
:10252000BF90AF909F908F9008958F929F92AF929F
:10253000BF92CF92DF92EF92FF9260911201709161
:1025400013018091140190911501611571058105A8
:10255000910521F464E279ED8BE597E02DE133EF0D
:1025600041E050E00E94021349015A019B01AC0175
:10257000A7EAB1E40E9421136B017C01ACEEB4EF39
:10258000A50194010E942F13DC01CB018C0D9D1D30
:10259000AE1DBF1DB7FF03C00197A109B0488093CE
:1025A000120190931301A0931401B0931501BC0183
:1025B000CD019F77FF90EF90DF90CF90BF90AF90CD
:1025C0009F908F90089560931201709313018093F0
:1025D0001401909315010895F999FECF92BD81BD24
:1025E000F89A992780B50895262FF999FECF1FBA3A
:1025F00092BD81BD20BD0FB6F894FA9AF99A0FBE2C
:1026000001960895052E97FB1EF400940E9419135D
:1026100057FD07D00E94341307FC03D04EF40C94EE
:10262000191350954095309521953F4F4F4F5F4F6F
:10263000089590958095709561957F4F8F4F9F4F2E
:1026400008950E945613A59F900DB49F900DA49FCE
:10265000800D911D11240895B7FF0C9421130E9441
:102660002113821B930B0895A1E21A2EAA1BBB1BF8
:10267000FD010DC0AA1FBB1FEE1FFF1FA217B3074E
:10268000E407F50720F0A21BB30BE40BF50B661F64
:10269000771F881F991F1A9469F760957095809528
:1026A00090959B01AC01BD01CF010895A29FB0019F
:1026B000B39FC001A39F700D811D1124911DB29F76
:1026C000700D811D1124911D089597FB072E16F49E
:1026D000009407D077FD09D00E94791307FC05D03C
:1026E0003EF4909581959F4F0895709561957F4F29
:1026F0000895AA1BBB1B51E107C0AA1FBB1FA61749
:10270000B70710F0A61BB70B881F991F5A95A9F79A
:1027100080959095BC01CD010895EE0FFF1F0590A7
:10272000F491E02D099481E090E0F8940C949813D2
:04273000F894FFCF4B
:10273400020004008000FFFFFFFF00E10000000032
:10274400000001000000000000000102030400C1B9
:10275400808100000000000000590467087A046FBB
:1027640004C0047E049C04000000001709ED082C3A
:0C2774000A2B0A0512FCFF0000471200AF
:2070000055C000006EC000006CC000006AC0000068C0000066C0000064C0000062C0000043
:2070200060C000005EC00000F2C400005AC0000058C0000056C0000054C0000052C00000EE
:2070400050C0000078C000004CC000004AC0000048C0000046C0000044C0000042C00000BE
:2070600040C000003EC000003CC000003AC0000038C0000036C0000034C0000032C0000048
:2070800030C000002EC000002CC000002AC0000028C0000026C0000024C0000022C00000A8
:2070A00020C000001EC000001CC0000011241FBECFEFDAE0DEBFCDBF11E0A0E0B1E0E2E3BC
:2070C000FFE702C005900D92A83AB107D9F711E0A8EAB1E001C01D92AE3BB107E1F78FD30B
:2070E00026C78ECFF89410926F0010928100109285001092840081E085BF15BE47985D9AEB
:20710000289A0C94000008952091B2013091B3012F5F3F4F3093B3012093B201932F37FFA6
:2071200003C08EEF831B982F990F921710F447980895479A08951F920F920FB60F9211246E
:207140002F938F939F93EF93FF9310928500109284008091A8019091A901009741F00197D3
:207160009093A9018093A801892B09F45D9A8091AA019091AB01009741F001979093AB0126
:207180008093AA01892B09F4289AE0E0F0E0859194918F5F9F4F49F08091AC019091AD0151
:2071A00001969093AD018093AC01FF91EF919F918F912F910F900FBE0F901F90189584E0BC
:2071C0008093E9000DC08091E8008B778093E80003C08EB3882351F08091E80082FFF9CFBE
:2071E0008091E80085FFEFCF8091F1000895982F83E08093E9008091E80085FD0DC0809136
:20720000E8008E778093E80003C08EB3882369F08091E80080FFF9CF9093F1005D9884E6CB
:2072200090E09093A9018093A80108954F925F926F927F928F929F92AF92BF92CF92DF921E
:20724000EF92FF920F931F93CF93DF9384E08093E9008091E80082FF57C2289884E690E067
:207260009093AB018093AA01AADF182F853481F48CE49DE19093AD018093AC0107B600FC4B
:20728000FDCFF999FECF81E180935700E89503C0843519F494DF8DE00DC28C34E1F38035F9
:2072A000D1F3843721F484E4A2DF80E003C2813611F489E5FFC18134B1F481DF182F7FDFE3
:2072C00090E0880F991FAA2797FDA095BA2F312F330F20E0442737FD4095542F822B932B68
:2072E000A42BB52BB8C1803711F483E5E3C1833549F4C0E0D1E089917ADF21E0C730D20714
:20730000D1F7D9C1863521F481E371DF80E3D2C1833731F487E86BDF85E969DF8EE1CAC149
:207320008536B9F4E0E0F0E093E085E090935700E89507B600FCFDCF80935700E89507B65D
:2073400000FCFDCFE058FF4FA0E7E030FA0771F7A2CF823739F4E1E0F0E089E08093570024
:207360008491A8C1863439F4E0E0F0E089E08093570084919FC18E3439F4E3E0F0E089E0E5
:2073800080935700849196C1813539F4E2E0F0E089E08093570084918DC1823631F489E521
:2073A00026DF80E024DF80E885C1823419F0873609F0E5C01092AD011092AC0100DF082FE8
:2073C000FEDEF82EFCDE682E8554823008F071C1902F80E0CF2DD0E0C82BD92B10926F00B3
:2073E000173609F04BC081E180935700E895DD24CC24C3943FC0E090AE01F090AF010091CC
:20740000B0011091B101B6E46B16D9F4ED2DF0E0EE29FF29E4918E2FEADEDD2081F082E08D
:2074200090E0A0E0B0E0E80EF91E0A1F1B1FE092AE01F092AF010093B0011093B101DC2470
:2074400018C0D801C701B695A7959795879559D5CEDE82E090E0A0E0B0E0E80EF91E0A1FF2
:207460001B1FE092AE01F092AF010093B0011093B1012197209709F0BECF7DC08090AE01F5
:207480009090AF01A090B001B090B10196E4691609F05DC083E0F40180935700E89507B63E
:2074A00000FCFDCF54C0F6E46F1661F5772031F1E090AE01F090AF010091B0011091B1019E
:2074C0007EDED82ECC24852D90E08C299D29F7010C0140925700E895112482E090E0A0E08B
:2074E000B0E0E80EF91E0A1F1B1FE092AE01F092AF010093B0011093B10102C060DE582E1A
:20750000742423C0E090AE01F090AF010091B0011091B10116950795F794E79450DE682FFA
:20752000C701F7D48091AE019091AF01A091B001B091B1010296A11DB11D8093AE01909349
:20754000AF01A093B001B093B101219704C05524772444244394209709F0A5CF96E46916B6
:2075600041F485E0F40180935700E89507B600FCFDCF8DE03CDE82E080936F009CC0833492
:2075800071F40091AE011091AF0119DE90E021E0F8010C0120935700E89511247CCE8336C8
:2075A00019F5E090AE01F090AF010091B0011091B10105DEF701E16090E021E00C0120938C
:2075C0005700E895112482E090E0A0E0B0E0E80EF91E0A1F1B1FE092AE01F092AF0100936A
:2075E000B0011093B10157CE8D3661F4E091AE01F091AF0185E080935700E89507B600FCF2
:20760000FDCF49CE823551F4E091AE01F091AF0105911491812FEBDD802F4CC0843421F5FE
:20762000E090AE01F090AF010091B0011091B10116950795F794E794C2DD682FC70169D4DE
:207640008091AE019091AF01A091B001B091B1010296A11DB11D8093AE019093AF01A093D8
:20766000B001B093B10117CE843609F5E090AE01F090AF010091B0011091B101D801C70142
:20768000B695A795979587953CD4B1DD82E090E0A0E0B0E0E80EF91E0A1F1B1FE092AE010A
:2076A000F092AF010093B0011093B10104C08B3111F08FE39CDD83E08093E9009091E8002B
:2076C0008091E8008E778093E80095FF04C010C08EB38823C9F08091E80080FFF9CF809193
:2076E000E8008E778093E80003C08EB3882361F08091E80080FFF9CF84E08093E9008091F1
:20770000E8008B778093E800DF91CF911F910F91FF90EF90DF90CF90BF90AF909F908F90AC
:207720007F906F905F904F9008959091B601892F8F77813249F58091B7018032A1F081328A
:2077400019F5913A09F58091E800877F8093E8008DE091E067E070E00BD28091E8008B770B
:207760008093E8000895913279F48091E800877F8093E8008DE091E067E070E05DD2809192
:20778000E8008E778093E800089582E061EC42E0B5D083E061E842E1B1D084E060E842E1EF
:2077A000ADC084B7877F84BF88E10FB6F89480936000109260000FBE20E880E090E00FB63F
:2077C000F89420936100809361000FBE81E085BF92E095BF3F9A209A559AE1E6F0E02083A1
:2077E000108247985D9A289A109289008AEF8093880090936F0083E080938100F0C0409116
:20780000000850910108109201081092000894B714BE88E10FB6F8948093600010926000D5
:207820000FBE292F30E0F901E270F07091FD18C090FF05C0859194918F5F9F4F81F423FFFF
:207840000FC08091090190910A014817590741F0E0E0F0E0859194918F5F9F4F09F042DC64
:20786000A0DF78941092AD011092AC010CC0DEDC36D38091AC019091AD0181549F4110F00D
:207880001092140141DC80911401882381F78091E00081608093E00025DC80E090E0089598
:2078A000FA01923049F0933061F09130F9F485E191E022E130E01EC087E291E02EE330E04D
:2078C00019C0882329F485E691E024E030E012C0813029F489E691E022E230E00BC0823006
:2078E00029F48DE891E028E130E004C080E090E020E030E091838083C90108958093E9004E
:207900008091EB0081608093EB001092ED006093EC004093ED008091EE00881F8827881F62
:2079200008958091B60188238CF403C08EB38823B1F08091E80082FFF9CF8091E8008B772A
:207940008093E80008958EB3882349F08091E80080FFF9CF8091E8008E778093E800089594
:20796000EF92FF920F931F9345D04CD008ED10E0F80180818F77808380818068808380819B
:207980008F7D808319BC1EBA1092B40180EEE82EF12CF70180818B7F8083F8018081816052
:2079A000808380E060E042E0A9DFE1EEF0E080818E7F8083E2EEF0E0808181608083808144
:2079C00088608083F70180818E7F8083F8018081806180831F910F91FF90EF900895E7ED06
:2079E000F0E08081816080838AE482BF81E08093B501B6CFE8EDF0E080818E7F808310921C
:207A0000E20008951092DA001092E10008951F920F920FB60F9211242F933F934F935F93F6
:207A20006F937F938F939F93AF93BF93EF93FF938091DA0080FF1BC08091D80080FF17C0B2
:207A40008091DA008E7F8093DA008091D90080FF0BC080E189BD82E189BD09B400FEFDCF36
:207A600081E08EBB3BD203C019BC1EBA37D28091E10080FF17C08091E20080FF13C0809138
:207A8000E2008E7F8093E2008091E20080618093E2008091D80080628093D80019BC85E049
:207AA0008EBB1CD28091E10084FF2CC08091E20084FF28C080E189BD82E189BD09B400FEC5
:207AC000FDCF8091D8008F7D8093D8008091E1008F7E8093E1008091E2008F7E8093E20012
:207AE0008091E20081608093E2008091B401882331F48091E30087FD02C081E001C084E067
:207B00008EBBECD18091E10083FF21C08091E20083FF1DC08091E100877F8093E10082E06A
:207B20008EBB1092B4018091E1008E7F8093E1008091E2008E7F8093E2008091E2008061E9
:207B40008093E20080E060E042E0D8DEC7D1FF91EF91BF91AF919F918F917F916F915F9130
:207B60004F913F912F910F900FBE0F901F9018959C014091BC015091BD014617570718F49D
:207B8000F90190E044C06115710511F0AB01F8CF8091E8008E778093E80040E050E0F0CF0F
:207BA0008EB3882309F444C0853009F443C08091E80083FF02C081E008958091E80082FD70
:207BC00031C08091E80080FF22C08091F3009091F200782F60E0292F30E0262B372B07C07A
:207BE00081918093F100415050402F5F3F4F4115510519F02830310598F390E02830310566
:207C000009F491E08091E8008E778093E8004115510531F6992321F605C08EB3882341F075
:207C2000853041F08091E80082FFF7CF80E0089582E0089583E008959C016115710529F47C
:207C40008091E8008B778093E800F90126C08EB3882391F1853091F18091E80083FF02C06C
:207C600081E008958091E80082FFF1CF06C08091F10081936150704059F02091F300809191
:207C8000F200322F20E090E0822B932B892B79F78091E8008B778093E80061157105B9F601
:207CA00005C08EB3882341F0853041F08091E80080FFF7CF80E0089582E0089583E00895C2
:207CC0000F931F93DF93CF9300D0CDB7DEB7E6EBF1E08091F100819381E0EE3BF807C9F792
:207CE00024DD8091E80083FFE4C08091B6019091B701953009F46DC0963040F4913081F1A7
:207D0000913070F0933009F0D4C02AC0983009F4A3C0993009F4B2C0963009F0CAC07CC023
:207D2000803809F4C6C0823809F0C3C08091BA0187708093E9008091EB001092E9002091DB
:207D4000E800277F2093E80090E025E0969587952A95E1F781708093F1001092F10087C0D8
:207D6000882319F0823009F0A4C08F71823009F0A0C08091B801882331F52091BA01277097
:207D800009F497C02093E9008091EB0080FF1BC0933021F48091EB00806213C08091EB0018
:207DA00080618093EB0081E090E002C0880F991F2A95E2F78093EA001092EA008091EB00E5
:207DC00088608093EB001092E9008091E800877F51C0882309F06DC01091B8011F770FB79B
:207DE000F8948091E800877F8093E8009ADD8091E80080FFFCCF8091E3008078812B809398
:207E0000E30080688093E300112311F482E001C083E08EBB0FBF4DC08058823008F049C033
:207E20008091B8019091B9016091BA01AE014F5F5F4F36DDBC01009709F43BC08091E8008E
:207E4000877F8093E80089819A8192DE8091E8008B778093E8002DC0803859F58091E800AA
:207E6000877F8093E8008091B4018093F1008091E8008E778093E80054DD1BC08823C9F4CA
:207E80009091B8019230A8F48091E800877F8093E8009093B40145DD8091B401882331F420
:207EA0008091E30087FD02C081E001C084E08EBB6CDC8091E80083FF0AC08091EB0080624E
:207EC0008093EB008091E800877F8093E8000F900F90CF91DF911F910F91089508951F9360
:207EE0008EB3882361F01091E9001092E9008091E80083FF01C0E4DE17701093E9001F916F
:207F00000895F999FECF92BD81BDF89A992780B50895262FF999FECF1FBA92BD81BD20BDBD
:207F20000FB6F894FA9AF99A0FBE01960895F894FFCF4341544552494E4100777700080031
:207F40000000000000080112011001020000084123360001000201000109023E00020100FF
:207F600080320904000001020201000524001001042402040524060001070582030800FF0C
:207F800009040100020A000000070504021000010705830210000104030904220341007216
:207FA000006400750069006E006F0020004C0065006F006E006100720064006F0000001836
:1A7FC00003410072006400750069006E006F0020004C004C004300000000D7
:00000001FF
