:100000000C94C5030C94ED030C94ED030C94ED03D8
:100010000C94ED030C94ED030C94ED030C94ED03A0
:100020000C94ED030C94ED030C9466050C94D80528
:100030000C94ED030C94ED030C94ED030C94ED0380
:100040000C94ED030C94ED030C94ED030C94ED0370
:100050000C94ED030C94ED030C94ED030C94BA0E88
:100060000C94ED030C94ED030C94ED030C94ED0350
:100070000C94ED030C94ED030C94ED030C94ED0340
:100080000C94ED030C94ED030C94ED030C94ED0330
:100090000C94ED030C94ED030C94ED030C94ED0320
:1000A0000C94ED030C94ED030C94ED03F0F89C8E8E
:1000B0008783878E9CF8F00000FEFF030303030391
:1000C000070EFCF80000FEFF0303030303070EFC0A
:1000D000F80000FFFF00000000000000FFFF00002C
:1000E000FEFF8383838383C7EE7C380000F8FC0E19
:1000F00007030303070EFCF800003F7FE0C0808089
:10010000C0E07F3FFFFF01010101010101FFFF008E
:1001100000FFFF0C0C0C0C1C3E77E3C100007FFFBE
:10012000C0C0C0C0C0E0703F1F00001F3F70E0C0F3
:10013000C0C0E0703F1F00007FFFC1C1C1C1C1E36B
:10014000773E1C00001F3F70E0C0C0C0E0703F1F42
:10015000000000000001FFFF01000000D5F08D1439
:10016000A1C881CFD9F1AF2000FFFFFFFFFFFFFF44
:10017000FFFFFFFFFFFFFFFFFFFF1F1F1F1F1F1FCF
:100180001F1F1F1F1F1F1F1F1F1F1F030505050602
:100190000702020302070106040303040204030426
:1001A0000407050103040701070305070106010110
:1001B000020407030507050603040705067F4141FE
:1001C000414141414141414141414141417F7F6183
:1001D00061615151514949494545454343437F7FF9
:1001E0004343434545454949495151516161617F07
:1001F0007F61616151515149494951515161616179
:100200007F7F434343454545494949454545434328
:10021000437F080B000202020100090400000102F2
:10022000020000052400100105240101010424023C
:10023000060524060001070581031000400904019A
:1002400000020A00000007050202400000070583C3
:10025000024000000403090412010002EF02014001
:100260004123368000010102030141726475696E09
:100270006F204C4C430041726475696E6F204C6571
:100280006F6E6172646F0000000000003E5B4F5BA8
:100290003E3E6B4F6B3E1C3E7C3E1C183C7E3C1829
:1002A0001C577D571C1C5E7F5E1C00183C1800FF0D
:1002B000E7C3E7FF0018241800FFE7DBE7FF30483B
:1002C0003A060E2629792926407F050507407F0535
:1002D000253F5A3CE73C5A7F3E1C1C08081C1C3E2C
:1002E0007F14227F22145F5F005F5F06097F017F1A
:1002F000006689956A606060606094A2FFA29408BD
:10030000047E040810207E201008082A1C08081CFF
:100310002A08081E101010100C1E0C1E0C30383E3F
:100320003830060E3E0E06000000000000005F00A0
:10033000000007000700147F147F14242A7F2A126C
:100340002313086462364956205000080703000052
:100350001C2241000041221C002A1C7F1C2A080884
:100360003E08080080703000080808080800006097
:10037000600020100804023E5149453E00427F4083
:100380000072494949462141494D331814127F10E2
:1003900027454545393C4A4949314121110907362C
:1003A00049494936464949291E00001400000040C9
:1003B00034000000081422411414141414004122C3
:1003C000140802015909063E415D594E7C12111272
:1003D0007C7F494949363E414141227F4141413E6E
:1003E0007F494949417F090909013E414151737FD4
:1003F0000808087F00417F41002040413F017F08FD
:100400001422417F404040407F021C027F7F04084D
:10041000107F3E4141413E7F090909063E4151217D
:100420005E7F09192946264949493203017F0103A4
:100430003F4040403F1F2040201F3F4038403F6327
:100440001408146303047804036159494D43007F81
:100450004141410204081020004141417F04020152
:1004600002044040404040000307080020545478F4
:10047000407F284444383844444428384444287F42
:10048000385454541800087E090218A4A49C787F9C
:100490000804047800447D40002040403D007F1067
:1004A00028440000417F40007C047804787C0804E4
:1004B00004783844444438FC182424181824241898
:1004C000FC7C08040408485454542404043F442485
:1004D0003C4040207C1C2040201C3C4030403C44A0
:1004E000281028444C9090907C4464544C4400085C
:1004F000364100000077000000413608000201028A
:1005000004023C2623263C1EA1A161123A40402051
:100510007A385454555921555579412154547841CC
:10052000215554784020545579400C1E527212398E
:100530005555555939545454593955545458000047
:10054000457C410002457D420001457C40F0292464
:1005500029F0F0282528F07C545545002054547C7F
:10056000547C0A097F493249494932324848483265
:10057000324A4848303A4141217A3A424020780094
:100580009DA0A07D39444444393D4040403D3C2439
:10059000FF2424487E4943662B2FFC2F2BFF09297B
:1005A000F620C0887E090320545479410000447D20
:1005B000413048484A32384040227A007A0A0A726A
:1005C0007D0D19317D2629292F2826292929263014
:1005D000484D4020380808080808080808382F1037
:1005E000C8ACBA2F102834FA00007B000008142A87
:1005F000142222142A14089500220095AA005500FE
:10060000AAAA55AA55AA000000FF00101010FF006A
:10061000141414FF001010FF00FF1010F010F0145D
:100620001414FC001414F700FF0000FF00FF141462
:10063000F404FC141417101F10101F101F141414AE
:100640001F00101010F0000000001F101010101FED
:1006500010101010F010000000FF101010101010FB
:10066000101010FF10000000FF140000FF00FF003A
:10067000001F10170000FC04F414141710171414B2
:10068000F404F40000FF00F714141414141414F705
:1006900000F7141414171410101F101F141414F45E
:1006A000141010F010F000001F101F0000001F14A5
:1006B000000000FC140000F010F01010FF10FF14F8
:1006C0001414FF141010101F00000000F010FFFFA2
:1006D000FFFFFFF0F0F0F0F0FFFFFF000000000070
:1006E000FFFF0F0F0F0F0F38444438447C2A2A3E77
:1006F000147E02020606027E027E026355494163B1
:100700003844443C04407E201E2006027E020299AA
:10071000A5E7A5991C2A492A1C4C7201724C304A43
:100720004D4D303048784830BC625A463D3E4949CC
:1007300049007E0101017E2A2A2A2A2A44445F4474
:100740004440514A444040444A51400000FF0103A4
:10075000E080FF000008086B6B083612362436066E
:100760000F090F060000181800000010100030409C
:10077000FF0101001F01011E00191D1712003C3C62
:100780003C3C000000000000611311241FBECFEFAD
:10079000DAE0DEBFCDBF11E0A0E0B1E0E6E2FAE2D0
:1007A00002C005900D92A834B107D9F726E0A8E45D
:1007B000B1E001C01D92A836B207E1F713E0C5EC25
:1007C000D3E004C02197FE010E940615C43CD10766
:1007D000C9F70E94040F0C9411150C94000020918D
:1007E000E401211103C08FEF9FEF08955FB7F894E4
:1007F00022E02093E9002091F20030E01216130667
:1008000014F421E030E0422FFC0184E6415038F03E
:10081000289880930E069091F1009193F7CF2115BF
:10082000310521F08091F200882319F05FBFC901E2
:1008300008958BE68093E800F9CF2FB7F89483E012
:100840008093E9009091E800892F807295FF04C0A1
:100850009091F20080E4891B2FBF089580910606D5
:1008600081110DC082E08093020684E0809303062C
:10087000109205061092040681E08093060682E03D
:1008800096E00895CF93DF931F92CDB7DEB76983CB
:10089000DC01ED91FC910280F381E02D41E050E01C
:1008A000BE016F5F7F4F09950F90DF91CF91089543
:1008B00083E08093E9008091F200882319F08AE3B5
:1008C0008093E80008950E941D0490E00895CF935E
:1008D000DF931F92CDB7DEB7FC018485958597FD28
:1008E00005C02FEF3FEF358724870BC0CE0101965F
:1008F0000E94EF03019719F4898190E002C08FEF05
:100900009FEF0F90DF91CF9108950F931F93CF9397
:10091000DF931F92CDB7DEB78C01FC0184859585EE
:1009200097FF0EC0CE0101960E94EF03019719F4C4
:10093000898190E002C08FEF9FEFF801958784874F
:10094000F801848595850F90DF91CF911F910F91CC
:100950000895FC018485958597FD0BC09FB7F89499
:1009600082E08093E9008091F2009FBF90E00196C1
:1009700008959FB7F89482E08093E9008091F20097
:100980009FBF90E008954091FE055091FF05209192
:10099000FC053091FD0542175307B4F49091E8002F
:1009A0009570E1F39091E80092FD19C08093F100F9
:1009B0008091FE059091FF0501968F739927892BF1
:1009C00019F48EEF8093E8008091FE059091FF0569
:1009D00001969093FF058093FE0581E0089580E0E5
:1009E0000895DF92EF92FF920F931F93CF93DF93BF
:1009F000D82E8A017B01E40EF51EEB01CE15DF0532
:100A000071F0D7FE03C0FE01849101C088810E946D
:100A1000C30421968111F2CF8FEF9FEF01C0C8016F
:100A2000DF91CF911F910F91FF90EF90DF9008958C
:100A30000F931F93CF93DF931F92CDB7DEB782E062
:100A4000898342E450E062E172E080E80E94F104B0
:100A50000E942E04DC0112960D911C911397011532
:100A6000110589F0D801ED91FC910280F381E02D10
:100A7000BE016F5F7F4FC801099597FD04C0F80163
:100A800000851185ECCF89810F90DF91CF911F9167
:100A90000F910895615030F02091F100FC01208306
:100AA0000196F8CF289884E680930E060895E5EE27
:100AB000F1E0A0E0B8E000800EBC8111012C11979C
:100AC000A0FDFDCF0192B9F70DB408951F920F92CA
:100AD0000FB60F9211248F939F938091E100909114
:100AE000E100937F9093E10083FF0FC01092E90033
:100AF00091E09093EB001092EC0092E39093ED0064
:100B00001092E40198E09093F00082FF20C093E0FF
:100B10009093E9009091F200992319F09AE3909351
:100B2000E80090910106992339F0909101069150C7
:100B300090930106992389F190910E06992339F03B
:100B400090910E06915090930E06992341F184FFE7
:100B500010C08091E2008E7E81608093E2008091DF
:100B6000E1008F7E8093E1008091E3018E7E8061C1
:100B700011C080FF16C08091E2008E7E806180935C
:100B8000E2008091E1008E7E8093E1008091E3019C
:100B90008E7E81608093E30104C05D9ACDCF289A58
:100BA000D6CF9F918F910F900FBE0F901F901895E9
:100BB0001F920F920FB60F921124CF92DF92EF92F5
:100BC000FF920F931F932F933F934F935F936F93D6
:100BD0007F938F939F93AF93BF93EF93FF93CF93A5
:100BE000DF93CDB7DEB76C97DEBFCDBF1092E900C3
:100BF0008091E80083FFFBC168E0CE0145960E942A
:100C00004A0582EF8093E8008D8987FF05C09091A7
:100C1000E80090FFFCCF03C09EEF9093E800982F70
:100C2000907609F0C6C09E894F89588D2F89F88C1F
:100C300091110CC0803829F48091E2018093F10079
:100C400002C01092F1001092F10045C1913051F4B0
:100C5000811141C14130510509F03DC18091E2014E
:100C60008D7F0BC0933061F4811135C14130510546
:100C700009F031C18091E20182608093E2012BC1D1
:100C8000953049F48091E80080FFFCCF822F806886
:100C90008093E30020C1963009F05EC00B8D1C8D5F
:100CA00022E01092E9001092FF051092FE05F21268
:100CB00032C01092FD051092FC050E94180599E0C3
:100CC000BE016F5F7F4FDB01E92F1D92EA95E9F7C7
:100CD0009983FA8291E09E8390EA98879AEF9987A8
:100CE0002091FE053091FF05275F3F4F3C832B830A
:100CF0008D831092E9001092FF051092FE0510936B
:100D0000FD050093FC0549E050E080E00E94F104FD
:100D10000E941805E0C01093FD050093FC050E9499
:100D20002E04DC0112960D911C91139701151105EB
:100D300009F4BBC0D801ED91FC910480F581E02D50
:100D4000BE016B5E7F4FC8010995009709F0C7C0CF
:100D5000F80100851185EACF973009F445C1983034
:100D600021F481E08093F100B6C0993009F0B3C05E
:100D7000837009F039C1ECE1F1E081E031E096E304
:100D80002081211109C08EE78093EA001092EA00C9
:100D90008F898093E4019FC08093E9003093EB003A
:100DA00021912093EC009093ED008F5F873041F705
:100DB000EACF8B8D9C8D1092E9001092FF05109266
:100DC000FE059093FD058093FC05898D811153C02C
:100DD0008E899D89913A49F4813209F005C147E035
:100DE00050E067E071E080E0BBC0913209F0FCC0E8
:100DF000833269F48F89988DA0E0B0E0809303017D
:100E000090930401A0930501B093060164C0803261
:100E100069F48091E80082FFFCCF67E087E091E011
:100E20000E944A058BEF8093E80055C0823209F09A
:100E300052C08F8980930E01EEEFFFE78591949168
:100E40008B3F9C4D19F0E0E0F8E002C0EEEFFAE0D5
:100E50008091070190910801A0910901B0910A01C8
:100E6000803B9440A105B10509F09EC080910E0120
:100E700080FF79C099C00E942E04FC010281138179
:100E80000115110509F4B0C0D801ED91FC91019054
:100E9000F081E02DBE016B5E7F4FC8010995811185
:100EA0001AC0F80100851185EBCFF1E0FF1609F4B7
:100EB0004EC0F3E0FF1298C08F89882309F44AC01E
:100EC000823089F440E860E186E792E00E942C13CA
:100ED000882309F489C08EEF8093E80088C0181633
:100EE0001906CCF381C0813029F440E86BE08AE632
:100EF00092E0ECCF833009F077C00E942E04DC0131
:100F00001296ED90FC9013978E010F5F1F4F6801B2
:100F1000E114F10479F0D701ED91FC910680F7819D
:100F2000E02DB801C7010995080F111DF701E084F4
:100F3000F184EECFD8011C92F60101900020E9F770
:100F40003197BF016C197D0940E0C601BFCF68E54C
:100F500072E002C064E572E0FB01449150E080E879
:100F60000E94F104B8CFEE3F2AE0F20751F08081F1
:100F700091818737A7E79A0721F09093FF0A809322
:100F8000FE0A87E797E791838083809160008093D2
:100F900000069BE088E10FB6F894A8958093600066
:100FA0000FBE9093600097CF8081918187379747DC
:100FB00009F091CFA89580916000886180936000CE
:100FC0008091000680936000EE3FBAE0FB0739F0A5
:100FD0008091FE0A9091FF0A918380837CCF1092CA
:100FE000FF0A1092FE0A77CF81E28093EB006C96A5
:100FF0000FB6F894DEBF0FBECDBFDF91CF91FF914A
:10100000EF91BF91AF919F918F917F916F915F9180
:101010004F913F912F911F910F91FF90EF90DF9093
:10102000CF900F900FBE0F901F9018958F929F92A8
:10103000AF92BF92CF92DF92EF92FF926B017C0151
:101040000E94950E4B015C01C114D104E104F1042E
:10105000F1F00E94950EDC01CB0188199909AA09CB
:10106000BB09883E9340A105B10570F321E0C21A87
:10107000D108E108F10888EE880E83E0981EA11CD3
:10108000B11CC114D104E104F10419F7DDCFFF90C4
:10109000EF90DF90CF90BF90AF909F908F9008958A
:1010A0008F929F92AF92BF92CF92DF92EF92FF9278
:1010B0000F931F93CF93DF936C017B018A01809183
:1010C0000E01882309F45CC08091E401882309F4AF
:1010D00057C08091E30180FF05C08091E0008260ED
:1010E0008093E000E801B12C8AEFA82E93E0892ECE
:1010F0002AE3922E209711F4BB20D9F10E941D04FF
:1011000081110AC0AA94AA20D9F161E070E080E0C0
:1011100090E00E941608EECF282F30E0C217D307C8
:101120000CF48C2F9FB7F8948092E9002091E8008E
:1011300025FF1DC0282F30E0C21BD30BF7018150C3
:1011400020F041914093F100FACFE20EF31EBB2054
:1011500019F09092E8000AC08091E80085FD07C070
:101160009092E800BB24B394209709F0B12C9FBF64
:10117000C1CF5D9884E6809301061016110644F0F5
:1011800081E090E0F6019383828380E090E001C0EB
:10119000C801DF91CF911F910F91FF90EF90DF90E9
:1011A000CF90BF90AF909F908F900895CF92DF9295
:1011B000EF92FF920F931F93CF93DF936C017A010D
:1011C0008B01C0E0D0E0CE15DF0581F0D8016D9134
:1011D0008D01D601ED91FC910190F081E02DC601C9
:1011E0000995892B11F02196EECF7E01C701DF9181
:1011F000CF911F910F91FF90EF90DF90CF900895C6
:101200000895089580E090E008950E940C152D9AAD
:101210000895BC0180E090E00C9416088FB1809591
:10122000807F669B88601C9B846008950C94791471
:1012300090E1282F81E061FD84E060FD880F62FD70
:101240008295687F969FD0011124A20FAB51BE4FAB
:101250009C91982B40FF98279C9308952F923F9242
:101260004F925F926F927F928F929F92AF92BF92B6
:10127000CF92DF92EF92FF920F931F93CF93DF9362
:10128000CDB7DEB727970FB6F894DEBF0FBECDBF40
:101290009F838E836A30A1F4DC0155962C9155977B
:1012A00051968D919C915297B8E02B9F800D911D86
:1012B0001124EE81FF81928B818B108A1786B5C035
:1012C0006D3009F4B2C0AE81BF811F960D911C91A3
:1012D000509700381105BCF0EE81FF812589422F1F
:1012E00050E087859089F6E02F9F800D911D112495
:1012F000AE81BF8150969C938E931F9756962C91EA
:1013000021117DC092C0EE81FF8181889288F0E436
:101310008F1691040CF7AE81BF8155963C90C801A1
:10132000B5E03B9E800D911D112418161906A4F6F8
:10133000432C512CC401E8E03E9E800D911D1124E8
:10134000181619064CF6AE81BF815496BC91BC8329
:10135000EE81FF81F389FD8325E0629FB0011124B6
:10136000CB0189579D4F3C011982F3012490F981EB
:10137000F53009F4212C540128E02B8320FE03C012
:101380003D813A8302C08C818A839A81911104C085
:10139000AC81BD81AB17F9F078018E2D801B8315D0
:1013A000D0F465018C2D8A19831588F4E0E8EE16D7
:1013B000F10448F4F0E4CF16D10428F44A81B601D0
:1013C000C7010E9418092FEFC21AD20AEBCF3FEFD4
:1013D000E31AF30AE2CF26948B8181508B83A40C0D
:1013E000B51C8111CBCF99819F5F9983040D151D89
:1013F000D30111963D01963009F0B7CF6DCF6AEF5A
:1014000064039001659F300D112420583F4F281729
:1014100039075CF4AE81BF81ED91FC911197019089
:10142000F081E02D6AE0CD01099581E090E02796FA
:101430000FB6F894DEBF0FBECDBFDF91CF911F91E5
:101440000F91FF90EF90DF90CF90BF90AF909F9063
:101450008F907F906F905F904F903F902F90089566
:101460002F923F924F925F926F927F928F929F92B4
:10147000AF92BF92CF92DF92EF92FF920F931F93A2
:10148000CF93DF93CDB7DEB760970FB6F894DEBF8A
:101490000FBECDBFEB82E22EF12CF88AEF869701CA
:1014A000280F391F121613060CF03EC18038910523
:1014B0000CF03AC19B01200F311D121613060CF0DF
:1014C00033C1603471050CF02FC1DB0177FF04C01C
:1014D000AA27BB27A61BB70BA770BB279B0177FFCB
:1014E00002C0295F3F4FE3E035952795EA95E1F784
:1014F00077FF08C02150310968E070E0FB01EA1B6A
:10150000FB0BDF01E02FE695E695E695F0E007702E
:1015100009F03196B9017695762F6627779567950C
:10152000680F791F6B517E4F7F01E20EF31EFF8221
:10153000EE82C12CD12CE8E0F0E08F010A1B1B0BDE
:101540001D830C83EE80FF80E216F30609F4ECC0E5
:101550002830310509F4E8C02F3F0FEF30070CF4B5
:10156000D6C08B0100581F4F198708875B014B01BC
:101570003B012C0118011A83098300E010E0EF847D
:10158000F8880E151F050CF0C2C0E0E84E16510495
:1015900009F4BDC057FC9FC02F3FFFEF3F0709F480
:1015A000BFC07801EC0CFD1CEB81E130A9F4F70120
:1015B000E40FF51FE491EE2EF12CF7010A2E02C084
:1015C000EE0FFF1F0A94E2F7FB87EA87F401E08041
:1015D000FA85EF2AF4012CC0FB81F11116C0F70146
:1015E000E40FF51FE491F0E00A2E02C0EE0FFF1F9A
:1015F0000A94E2F77F01E094F094FB86EA86F50115
:10160000E080FA85EF22F50113C0F701E40FF51F22
:10161000E491F0E07F010A2E02C0EE0CFF1C0A9458
:10162000E2F7FB86EA86F301E080FA85EF26F30114
:10163000E082109709F44FC02730310509F44BC000
:101640007801EC0CFD1CFB81F130B1F4F701E40FE3
:10165000F51FE491F0E07F010C8002C0F594E7945F
:101660000A94E2F7FB86EA86E885F985E080FA8548
:10167000EF2AE885F9852EC0FB81F11118C0F7012A
:10168000E40FF51FE491F0E00C8002C0F595E795BA
:101690000A94E2F77F01E094F094FB86EA86E98100
:1016A000FA81E080FA85EF22E981FA8113C0F7011F
:1016B000E40FF51FE491F0E07F010C8002C0F59487
:1016C000E7940A94E2F7FB86EA86F101E080FA8566
:1016D000EF26F101E0820F5F1F4FE885F985319613
:1016E000F987E887E981FA813196FA83E983FFEF88
:1016F0002F1A3F0AEFEF4E1A5E0AFFEF6F1A7F0AAA
:10170000EFEF8E1A9E0AFFEFAF1ABF0A38CF2F5F96
:101710003F4F60587F4FEF84F888CE0CDF1C12CF0C
:10172000109709F08DCFD7CF60960FB6F894DEBF33
:101730000FBECDBFDF91CF911F910F91FF90EF9022
:10174000DF90CF90BF90AF909F908F907F906F90E1
:101750005F904F903F902F900895DF92EF92FF920D
:101760000F931F93CF93DF93C62FD0E0E82EF12C79
:101770009AE0899FF0011124DF01A85BBE4FAC0FF6
:10178000BD1F9C91911107C0E455FE4FEC0FFD1F4A
:10179000D080DD2061F02AE02E9DC0012F9D900DAC
:1017A000112484559E4FC80FD91F888144C191E0F0
:1017B0009C93843009F090E0162F082F90838AE0E4
:1017C0008E9DF0018F9DF00D1124E658FE4FEC0F19
:1017D000FD1F8081813011F0843041F481E0800F61
:1017E000853020F46FEF610F6A30D0F180E09AE02D
:1017F0009E9D90019F9D300D1124F901E455FE4FEF
:10180000EC0FFD1F9081892B808326583E4FF901F4
:10181000EC0FFD1F8081813011F0843031F481E0C4
:10182000800F853010F41A3080F180E09AE09E9DA0
:1018300090019F9D300D1124F901E455FE4FEC0FEE
:10184000FD1F9081892B808326583E4FF901EC0FB4
:10185000FD1F8081813081F1843009F0CDC02CC022
:1018600097012F5F3F4F9AE0929FF001939FF00DF9
:101870001124EC0FFD1FE758FE4F90819D7F9130A2
:1018800009F0B4CF0E94AD0BB2CF97012F5F3F4F4D
:101890009AE0929FF001939FF00D1124E658FE4FBD
:1018A000EC0FFD1F9081923019F0943009F0BDCFFC
:1018B000612F0E94AD0BBACF053008F09DC06FEFCD
:1018C000610F6A3008F098C08AE08E9DF0018F9D0C
:1018D000F00D1124EC0FFD1FE758FE4F8081825060
:1018E000823008F089C0802F0E94230D9AE09E9DCF
:1018F00090019F9D300D1124F901E455FE4FEC0F2E
:10190000FD1F4081842B808326583E4FF901EC0F48
:10191000FD1F808182508230D8F481E0800F8530B5
:10192000B8F461E0610F6A3098F497012F5F3F4F80
:10193000929FF001939FF00D1124E658FE4FEC0F9B
:10194000FD1F9181923009F459C0943009F456C0BA
:1019500080E09AE09E9D90019F9D300D1124F90139
:10196000E455FE4FEC0FFD1F4081842B80832658E9
:101970003E4FF901EC0FFD1F80818250823030F420
:1019800081E0800F853010F41A30D8F180E09AE0C1
:101990009E9DF0019F9DF00D1124DF01A455BE4FC7
:1019A000AC0FBD1F9C91892B8C93E658FE4FEC0F1A
:1019B000FD1F80818250823058F4053048F461E088
:1019C000610F6A3028F48181813081F1843071F1B6
:1019D0008AE08E9D90018F9D300D1124F901E45510
:1019E000FE4FEC0FFD1F80818D298083285B3E4FC9
:1019F000C20FD31F18821FC080E078CF0E94AD0BAA
:101A0000A8CF97012F5F3F4F929FF001939FF00D5A
:101A10001124E658FE4FEC0FFD1F90819D7F913001
:101A200009F0B4CF612F0E94AD0BB1CF802F0E947F
:101A3000230DD82ECDCFDF91CF911F910F91FF9025
:101A4000EF90DF900895DF92EF92FF920F931F9334
:101A5000CF93DF93C62FD0E0E82EF12C9AE0899F38
:101A600090011124F901E85BFE4FEC0FFD1F9081FE
:101A7000911108C0D901A455BE4FAC0FBD1FDC9019
:101A8000DD2061F02AE02E9DC0012F9D900D1124D4
:101A900084559E4FC80FD91F88813FC1162F082F2C
:101AA00081E0808326583E4FF901EC0FFD1F8081B5
:101AB000823019F0843009F098C08FEF800F8530A4
:101AC00008F093C06FEF610F6A3008F08EC0970185
:101AD000215031099AE0929FF001939FF00D11245B
:101AE000EC0FFD1FE758FE4F90819250923008F0A6
:101AF0007CC00E94230D9AE09E9D90019F9D300D19
:101B00001124F901E455FE4FEC0FFD1F9081892B44
:101B1000808326583E4FF901EC0FFD1F80818230F3
:101B200011F0843039F48FEF800F853018F41A30BB
:101B300008F45DC080E09AE09E9D90019F9D300D6D
:101B40001124F901E455FE4FEC0FFD1F9081892B04
:101B5000808326583E4FF901EC0FFD1F80818230B3
:101B600011F0843039F4053028F46FEF610F6A30DA
:101B700008F454C080E09AE09E9D90019F9D300D36
:101B80001124F901E455FE4FEC0FFD1F4081842B19
:101B9000808326583E4FF901EC0FFD1F80818D7F19
:101BA000813049F48FEF800F853028F461E0610FB8
:101BB0006A3008F446C080E09AE09E9D90019F9DA7
:101BC000300D1124F901E455FE4FEC0FFD1F40814B
:101BD000842B808326583E4FF901EC0FFD1F808136
:101BE0008D7F813009F08DC041C080E084CF9701A6
:101BF000215031099AE0929FF001939FF00D11243A
:101C0000E658FE4FEC0FFD1F9081913019F0943093
:101C100009F090CF612F0E94230D8DCF8AE08E9D19
:101C2000F0018F9DF00D1124EC0FFD1FE758FE4FC2
:101C300080818D7F813009F09DCF802F0E94AD0B78
:101C40009ACF970121503109929FF001939FF00D97
:101C50001124E658FE4FEC0FFD1F9181913019F0D1
:101C6000943009F0A8CF0E94230DA6CF8FEF800FEC
:101C7000853008F046C01A3008F043C09701215063
:101C80003109929FF001939FF00D1124E658FE4F09
:101C9000EC0FFD1F90819250923098F5612F0E94B9
:101CA000230D9AE09E9DF0019F9DF00D1124DF0110
:101CB000A455BE4FAC0FBD1F9C91892B8C93E65849
:101CC000FE4FEC0FFD1F80818D7F813031F4053098
:101CD00020F461E0610F6A30B0F08AE08E9D9001DF
:101CE0008F9D300D1124F901E455FE4FEC0FFD1FBF
:101CF00080818D298083285B3E4FC20FD31F1882BD
:101D00000CC080E0CECF8181823011F0843029F781
:101D1000802F0E94AD0BD82EE0CFDF91CF911F9185
:101D20000F91FF90EF90DF9008953FB7F894809166
:101D3000640690916506A0916606B091670626B587
:101D4000A89B05C02F3F19F00196A11DB11D3FBFF3
:101D5000BA2FA92F982F8827820F911DA11DB11D81
:101D6000BC01CD0142E0660F771F881F991F4A957D
:101D7000D1F708951F920F920FB60F9211242F934F
:101D80003F938F939F93AF93BF9380915F06909102
:101D90006006A0916106B09162063091630623E06F
:101DA000230F2D3720F40196A11DB11D05C026E893
:101DB000230F0296A11DB11D2093630680935F0639
:101DC00090936006A0936106B093620680916406CA
:101DD00090916506A0916606B09167060196A11DD7
:101DE000B11D8093640690936506A0936606B09338
:101DF0006706BF91AF919F918F913F912F910F9067
:101E00000FBE0F901F901895CF93DF93CDB7DEB71D
:101E100028970FB6F894DEBF0FBECDBF789484B577
:101E2000826084BD84B5816084BD85B5826085BDD6
:101E300085B5816085BD80916E00816080936E0064
:101E40001092810080918100826080938100809156
:101E50008100816080938100809180008160809307
:101E60008000809191008260809391008091910028
:101E700081608093910080919000816080939000B8
:101E80008091C10084608093C1008091C100826014
:101E90008093C1008091C10081608093C1008091D6
:101EA000C30081608093C3008091C00082608093F2
:101EB000C0008091C20081608093C20080917A004E
:101EC000846080937A0080917A00826080937A00A7
:101ED00080917A00816080937A0080917A00806896
:101EE00080937A001092E4011092E2011092E301D3
:101EF0008091D70081608093D70080EA8093D800DA
:101F000089B5806189BD89B5826089BD09B400FE4B
:101F1000FDCF61E070E080E090E00E9416088091C3
:101F2000D8008F7C80618093D8008091E000807F12
:101F30008093E0008091E1008E7E8093E1008DE04F
:101F40008093E200559A209A81EC80937C0085B1C1
:101F5000806F85B984B1877E84B984B1876E84B976
:101F60005E9A5F988AB1806D8AB9769A6E9881B3CD
:101F7000806F81BB899880B38D7080BB80E58CBDFC
:101F800081E08DBD85E090E00E9409095F9A85E0BF
:101F900090E00E9409095E985C98ECE5F1E084917C
:101FA0008EBD00000DB407FEFDCF319621E0E9366D
:101FB000F207A9F75C9A81E880936400809165003C
:101FC00081608093650080E00E9457050E940E09A1
:101FD00087FF24C05C9885EA8EBD00000DB407FE23
:101FE000FDCF5C9A2E982F982D9880916400806286
:101FF0008093640081E083BF889513BEFCCF2D9849
:102000000E940E098478843871F00E940E09847150
:10201000843131F188EC90E00E9409090E940E0998
:1020200082FDEDCF3AC00E94070988EC90E00E9443
:1020300009092F9882E090E00E9479148F3F29F0DF
:102040006FEF82E090E00E94811484EF91E00E94A3
:1020500009092F9A0E940E0984788438D9F3D5CFC4
:102060000E94070988EC90E00E9409092E9882E0FE
:1020700090E00E947914882329F060E082E090E0EB
:102080000E94811484EF91E00E9409092E9A0E9417
:102090000E0984718431D9F3BDCF0E94070982E013
:1020A00090E00E941609882319F03E9A3F9A02C0D8
:1020B0003E983F9881E090E00E941609182F147016
:1020C00081FF41C011112E9801EFC02EDD24DA945A
:1020D0000E940E0986FF05C02E9A2F9A0E940709BA
:1020E00032C0112331F044E0C416D10411F42E9A09
:1020F0002F9881E00E945705EE24E39400E128E543
:102100004CEA50E0B60184E190E00E94300A80E0A1
:102110000E9457058FE090E00E9409098FEFC81ACE
:10212000D80A99E1C916D10499F6112311F02F9A12
:102130002D9880E991E00E9409090E94070985EE27
:1021400095E00E94921382E390E00E9409090E94A8
:102150000E098111F8CF809164008E7F8093640016
:1021600080917A00806480937A0080917A0086FD65
:10217000FCCF00917800109179000E94950E20E02C
:1021800030E0980111270027600F711F821F931FF5
:102190002091640021602093640061157105810520
:1021A000910511F00E94701481E28093F005AEED6C
:1021B0002A2EA1E03A2E11E18FB7F89440915F06E4
:1021C0005091600660916106709162068FBF8091A8
:1021D000F105E42FE81B8E2F9091F205992329F049
:1021E000E093F3051092F2052FC29091F005E917E4
:1021F00048F48F5F891708F027C281E083BF889574
:1022000013BE22C281E08093F2054093F1058091D4
:10221000EC059091ED0501969093ED058093EC050A
:102220008091EE058093EF050E940E098093EE05E4
:102230009090E101892D90E0029714F09A9401C0EA
:10224000912C9092E101911089C08091DF019091D1
:10225000E001ECEAF1E0AAE7B1E02191222311F0DC
:102260001C92019611962E163F06B9F79093E00145
:102270008093DF0182E3ECEAF1E0282F11922A95A6
:10228000E9F7E8E4F1E011928A95E9F700E0D12C52
:10229000602F80E00E94AD0BD82A0F5F0A30C1F793
:1022A000DD2021F08FE18093E10158C0809102018F
:1022B000815080930201882341F08091EF0582FDD7
:1022C0004DC08091EE0582FF49C088E0E3E1F1E076
:1022D000DE01119601900D928A95E1F710927A0134
:1022E0001092840110928E01109298011092A20116
:1022F000FAE7CF2EF1E0DF2EF601818181938BEAA0
:1023000091E08E179F07C9F7ECEAAE2EE1E0BE2EF2
:102310000E94221428E030E040E050E00E948F1438
:10232000E1E0F0E0EC0FFD1FE60FF71F8081F60102
:102330008187FAE0CF0ED11CAC14BD0449F780911F
:102340000101282F30E0223031051CF099249A94A5
:10235000980E909201018FEF809302018091EF051A
:1023600083FD29C08091EE0583FF25C020910001E7
:102370008091010190E04AE0249F90011124A9017D
:1023800044555E4FFA01E80FF91F6081611113C0D7
:10239000FC013196DA01AE0FBF1F4C9141110BC009
:1023A00026583E4FD901A80FB91F8C91E20FF31F99
:1023B00090819C9380830091DE01802F90E00297B2
:1023C00014F0015001C000E00093DE0101114BC088
:1023D0000E940E0986FF0FC080910001282F30E077
:1023E0002330310514F48F5F01C084E08093000135
:1023F00084E08093DE010E940E0985FF0FC080916A
:102400000001282F30E02230310514F0815001C046
:1024100080E08093000184E08093DE010E940E0939
:1024200087FF0EC080910101282F30E02230310556
:1024300014F00FEF080F0093010184E08093DE0198
:102440000E940E0984FF0FC080910101282F30E007
:102450002730310514F48F5F01C088E080930101BB
:1024600084E08093DE0180E0E5EEF1E081118FEF02
:10247000002481938193819381930394D1F71092E7
:10248000F7051092F6051092F5051092F4055AE73B
:10249000452E51E0552E6CEA662E61E0762E78E1ED
:1024A000A72EB12C43E0842E912CC12CD12CF3010A
:1024B000EC0DFD1D8081882359F08091E10183FF9F
:1024C00007C0EE24E39408E021E14DEB51E00DC09C
:1024D000F201EC0DFD1D4081149FA0011124435415
:1024E0005E4FEE24E39408E021E1B401C5010E94AF
:1024F000300A2FEFC21AD20A46E0840E911C8AE0FD
:10250000C816D104A1F690E1A90EB11CEAE04E0E66
:10251000511CFAE06F0E711C28E6A216B10411F6E8
:10252000609101018091000146E0649FB001112497
:102530006D5F7F4FE0E18E9FC001112422E0E22E0B
:1025400000E121E149E651E048960E94300AA0905E
:10255000DF01B090E001C50168EE73E00E94F21463
:10256000CB01B6010E94F21435E0932E989EA00193
:10257000999E500D112445575E4FEE24E39403E0DD
:1025800025E060E370E088E790E00E94300AC50132
:1025900064E670E00E94F214CB01B6010E94F214CE
:1025A000989EA001999E500D112445575E4F25E03D
:1025B00064E370E088E790E00E94300AC501B6014C
:1025C0000E94F2145C01CB01B6010E94F214989EA5
:1025D000A001999E500D112445575E4F25E068E3F8
:1025E00070E088E790E00E94300A9A9CA0019B9CD2
:1025F000500D112445575E4F25E06CE370E088E7ED
:1026000090E00E94300A80910201869586959FE3B2
:10261000C92EC81AD12CA12CB12CC601F1E4CF16B9
:10262000D10414F080E490E0A816B90654F441E017
:10263000B5018FE790E00E9418092FEFA21AB20AA5
:10264000ECCF80E00E94570580E090E0892B09F4F0
:10265000B3CD0E940000AFCDDF92EF92FF920F93B7
:102660001F93CF93DF93D82EF92EE42E062F10E080
:10267000C8010196880F0E94C30483E00E94C3042E
:10268000CD2DDF2D0C0F1D1FC017D10789F0E7FEE0
:1026900003C0FE01849101C088810E94C304F82E0A
:1026A00080E00E94C3048F2121968111EDCF01C0EB
:1026B00081E0DF91CF911F910F91FF90EF90DF901C
:1026C0000895EFE0F6E01382128288EE93E0A0E036
:1026D000B0E084839583A683B78386E291E09183FB
:1026E00080838FEF9FEF95878487E5EEF5E0138277
:1026F00012821186128680E18387108617821586E2
:1027000088E391E09183808386E491E095838483DC
:10271000108A1786128A118A81E0838B148A858B2E
:10272000168A08950F931F93CF93DF938C0181E056
:1027300090E00E94160980FF32C08AE090E00E947B
:1027400016099FEF980F9E3F50F522E330E0D80125
:1027500050963C932E931F9728E330E052963C937B
:102760002E935197CBE0D0E0D801ED91FC910190F0
:10277000F081E02D682FC8010995CE010E9416094D
:102780002196C131D10581F780E00E94570588EE7E
:1027900093E0DF91CF911F910F910C940909DF9184
:1027A000CF911F910F91089504970C9492138F92DB
:1027B0009F92AF92BF92CF92DF92EF92FF92CF9310
:1027C000DF93EC01688179818A819B8161157105B4
:1027D0008105910521F464E279ED8BE597E02DE127
:1027E00033EF41E050E00E948F1449015A019B01F0
:1027F000AC01A7EAB1E40E94AE146B017C01ACEE1F
:10280000B4EFA50194010E94BC14DC01CB018C0D36
:102810009D1DAE1DBF1DB7FF03C00197A109B048A4
:1028200088839983AA83BB83BC01CD019F77DF9105
:10283000CF91FF90EF90DF90CF90BF90AF909F909F
:102840008F9008958F929F92AF92BF92CF92DF9216
:10285000EF92FF9260910F01709110018091110130
:1028600090911201611571058105910521F464E2D1
:1028700079ED8BE597E02DE133EF41E050E00E94E8
:102880008F1449015A019B01AC01A7EAB1E40E94EF
:10289000AE146B017C01ACEEB4EFA50194010E9473
:1028A000BC14DC01CB018C0D9D1DAE1DBF1DB7FFFF
:1028B00003C00197A109B04880930F0190931001C4
:1028C000A0931101B0931201BC01CD019F77FF903D
:1028D000EF90DF90CF90BF90AF909F908F90089532
:1028E00060930F0170931001809311019093120176
:1028F0000895F999FECF92BD81BDF89A992780B5C8
:102900000895262FF999FECF1FBA92BD81BD20BD33
:102910000FB6F894FA9AF99A0FBE01960895052E0B
:1029200097FB1EF400940E94A61457FD07D00E9446
:10293000C11407FC03D04EF40C94A6145095409596
:10294000309521953F4F4F4F5F4F0895909580955B
:10295000709561957F4F8F4F9F4F08950E94E314AC
:10296000A59F900DB49F900DA49F800D911D1124E3
:102970000895B7FF0C94AE140E94AE14821B930B03
:102980000895A1E21A2EAA1BBB1BFD010DC0AA1FB0
:10299000BB1FEE1FFF1FA217B307E407F50720F0C8
:1029A000A21BB30BE40BF50B661F771F881F991F43
:1029B0001A9469F760957095809590959B01AC018C
:1029C000BD01CF010895A29FB001B39FC001A39F95
:1029D000700D811D1124911DB29F700D811D112458
:1029E000911D0895AA1BBB1B51E107C0AA1FBB1F65
:1029F000A617B70710F0A61BB70B881F991F5A958B
:102A0000A9F780959095BC01CD010895EE0FFF1FA9
:102A10000590F491E02D099481E090E0F8940C94F5
:062A20001115F894FFCF30
:102A2600020440FFFFFFFF00E1000000000000017C
:102A3600000000000000000102030400C1808100C4
:102A46000000000000004204500863045804A90472
:102A560067048504000000002E09D6080209010952
:082A66009213FCFF0000D413E1
:00000001FF
