:100000000C94CA030C94F2030C94F2030C94F203C4
:100010000C94F2030C94F2030C94F2030C94F2038C
:100020000C94F2030C94F2030C946B050C94DD0514
:100030000C94F2030C94F2030C94F2030C94F2036C
:100040000C94F2030C94F2030C94F2030C94F2035C
:100050000C94F2030C94F2030C94F2030C94440DF0
:100060000C94F2030C94F2030C94F2030C94F2033C
:100070000C94F2030C94F2030C94F2030C94F2032C
:100080000C94F2030C94F2030C94F2030C94F2031C
:100090000C94F2030C94F2030C94F2030C94F2030C
:1000A0000C94F2030C94F2030C94F203F0F89C8E7F
:1000B0008783878E9CF8F00000FEFF030303030391
:1000C000070EFCF80000FEFF0303030303070EFC0A
:1000D000F80000FFFF00000000000000FFFF00002C
:1000E000FEFF8383838383C7EE7C380000F8FC0E19
:1000F00007030303070EFCF800003F7FE0C0808089
:10010000C0E07F3FFFFF01010101010101FFFF008E
:1001100000FFFF0C0C0C0C1C3E77E3C100007FFFBE
:10012000C0C0C0C0C0E0703F1F00001F3F70E0C0F3
:10013000C0C0E0703F1F00007FFFC1C1C1C1C1E36B
:10014000773E1C00001F3F70E0C0C0C0E0703F1F42
:10015000000000000001FFFF01000000D5F08D1439
:10016000A1C881CFD9F1AF2000FFFFFFFFFFFFFF44
:10017000FFFFFFFFFFFFFFFFFFFFFFFFFFFFFFFF8F
:10018000FFFF1F1F1F1F1F1F1F1F1F1F1F1F1F1FBF
:100190001F1F1F1F1F1F1F1F1F1F1FFF0101010107
:1001A00001010101010101FF1F10101010101010BA
:1001B000101010101FFF03050911214181010101D9
:1001C00001FF1F10101010101010111214181FFF33
:1001D0000101010181412111090503FF1F181412BA
:1001E00011101010101010101FFF03050911A1416C
:1001F0000101010101FF1F1814121110101010103D
:1002000010101FFF010101010141A111090503FFA8
:100210001F10101010101010111214181F080B00CE
:10022000020202010009040000010202000005248C
:100230000010010524010101042402060524060022
:10024000010705810310004009040100020A0000B3
:100250000007050202400000070583024000000479
:1002600003090412010002EF02014041233680001D
:10027000010102030141726475696E6F204C4C43A9
:100280000041726475696E6F204C656F6E617264B7
:100290006F0000000000003E5B4F5B3E3E6B4F6B0B
:1002A0003E1C3E7C3E1C183C7E3C181C577D571C57
:1002B0001C5E7F5E1C00183C1800FFE7C3E7FF00D0
:1002C00018241800FFE7DBE7FF30483A060E26291E
:1002D000792926407F050507407F05253F5A3CE7E1
:1002E0003C5A7F3E1C1C08081C1C3E7F14227F22A7
:1002F000145F5F005F5F06097F017F006689956A72
:10030000606060606094A2FFA29408047E040810FC
:10031000207E201008082A1C08081C2A08081E1025
:100320001010100C1E0C1E0C30383E3830060E3EDD
:100330000E06000000000000005F0000000700073C
:1003400000147F147F14242A7F2A12231308646266
:1003500036495620500008070300001C22410000C7
:1003600041221C002A1C7F1C2A08083E0808008025
:1003700070300008080808080000606000201008BD
:1003800004023E5149453E00427F400072494949BE
:10039000462141494D331814127F102745454539F0
:1003A0003C4A4949314121110907364949493646F4
:1003B0004949291E000014000000403400000008D4
:1003C0001422411414141414004122140802015977
:1003D00009063E415D594E7C1211127C7F49494904
:1003E000363E414141227F4141413E7F4949494199
:1003F0007F090909013E414151737F0808087F00C8
:10040000417F41002040413F017F081422417F404D
:100410004040407F021C027F7F0408107F3E414124
:10042000413E7F090909063E4151215E7F09192994
:1004300046264949493203017F01033F4040403F7E
:100440001F2040201F3F4038403F631408146303BF
:10045000047804036159494D43007F41414102043E
:10046000081020004141417F040201020440404045
:100470004040000307080020545478407F2844443B
:10048000383844444428384444287F385454541855
:1004900000087E090218A4A49C787F080404780050
:1004A000447D40002040403D007F10284400004132
:1004B0007F40007C047804787C0804047838444445
:1004C0004438FC1824241818242418FC7C0804043C
:1004D00008485454542404043F44243C4040207CA5
:1004E0001C2040201C3C4030403C44281028444CF8
:1004F0009090907C4464544C4400083641000000C5
:10050000770000004136080002010204023C262365
:10051000263C1EA1A161123A4040207A385454551D
:1005200059215555794121545478412155547840E9
:1005300020545579400C1E5272123955555559396F
:100540005454545939555454580000457C410002C4
:10055000457D420001457C40F0292429F0F0282502
:1005600028F07C545545002054547C547C0A097F63
:100570004932494949323248484832324A4848307B
:100580003A4141217A3A42402078009DA0A07D392D
:10059000444444393D4040403D3C24FF2424487EAF
:1005A0004943662B2FFC2F2BFF0929F620C0887E9C
:1005B000090320545479410000447D413048484AA1
:1005C00032384040227A007A0A0A727D0D19317D54
:1005D0002629292F28262929292630484D40203828
:1005E0000808080808080808382F10C8ACBA2F10E7
:1005F0002834FA00007B000008142A142222142A4E
:1006000014089500220095AA005500AAAA55AA55DB
:10061000AA000000FF00101010FF00141414FF00C7
:100620001010FF00FF1010F010F0141414FC001450
:1006300014F700FF0000FF00FF1414F404FC14146E
:1006400017101F10101F101F1414141F001010106B
:10065000F0000000001F101010101F10101010F0FC
:1006600010000000FF101010101010101010FF10DC
:10067000000000FF140000FF00FF00001F10170023
:1006800000FC04F414141710171414F404F40000FC
:10069000FF00F714141414141414F700F7141414AE
:1006A000171410101F101F141414F4141010F0104D
:1006B000F000001F101F0000001F14000000FC14B9
:1006C0000000F010F01010FF10FF141414FF1410AD
:1006D00010101F00000000F010FFFFFFFFFFF0F000
:1006E000F0F0F0FFFFFF0000000000FFFF0F0F0F12
:1006F0000F0F38444438447C2A2A3E147E020206F6
:1007000006027E027E0263554941633844443C043C
:10071000407E201E2006027E020299A5E7A5991CB4
:100720002A492A1C4C7201724C304A4D4D303048D7
:10073000784830BC625A463D3E494949007E010135
:10074000017E2A2A2A2A2A44445F444440514A44CA
:100750004040444A51400000FF0103E080FF000098
:1007600008086B6B083612362436060F090F060090
:100770000018180000001010003040FF0101001F99
:1007800001011E00191D1712003C3C3C3C000000FA
:100790000000621111241FBECFEFDAE0DEBFCDBF33
:1007A00011E0A0E0B1E0E0E0F6E202C005900D92B9
:1007B000AC34B107D9F726E0ACE4B1E001C01D923A
:1007C000AC36B207E1F713E0CAECD3E004C02197DE
:1007D000FE010E94F312C93CD107C9F70E948E0D99
:1007E0000C94FE120C9400002091E801211103C02A
:1007F0008FEF9FEF08955FB7F89422E02093E90010
:100800002091F20030E01216130614F421E030E0DB
:10081000422FFC0184E6415038F02898809312065C
:100820009091F1009193F7CF2115310521F080913E
:10083000F200882319F05FBFC90108958BE6809309
:10084000E800F9CF2FB7F89483E08093E900909106
:10085000E800892F807295FF04C09091F20080E437
:10086000891B2FBF089580910A0681110DC082E077
:100870008093060684E08093070610920906109282
:10088000080681E080930A0686E096E00895CF93FB
:10089000DF931F92CDB7DEB76983DC01ED91FC9148
:1008A0000280F381E02D41E050E0BE016F5F7F4F99
:1008B00009950F90DF91CF91089583E08093E9002F
:1008C0008091F200882319F08AE38093E80008956C
:1008D0000E94220490E00895CF93DF931F92CDB73A
:1008E000DEB7FC018485958597FD05C02FEF3FEFAE
:1008F000358724870BC0CE0101960E94F40301972F
:1009000019F4898190E002C08FEF9FEF0F90DF9183
:10091000CF9108950F931F93CF93DF931F92CDB77D
:10092000DEB78C01FC018485958597FF0EC0CE0152
:1009300001960E94F403019719F4898190E002C0A6
:100940008FEF9FEFF80195878487F801848595855F
:100950000F90DF91CF911F910F910895FC01848535
:10096000958597FD0BC09FB7F89482E08093E900CE
:100970008091F2009FBF90E0019608959FB7F89490
:1009800082E08093E9008091F2009FBF90E008959B
:100990004091020650910306209100063091010615
:1009A00042175307B4F49091E8009570E1F39091E9
:1009B000E80092FD19C08093F100809102069091A9
:1009C000030601968F739927892B19F48EEF809374
:1009D000E800809102069091030601969093030629
:1009E0008093020681E0089580E00895DF92EF92FF
:1009F000FF920F931F93CF93DF93D82E8A017B0131
:100A0000E40EF51EEB01CE15DF0571F0D7FE03C035
:100A1000FE01849101C088810E94C8042196811141
:100A2000F2CF8FEF9FEF01C0C801DF91CF911F91EF
:100A30000F91FF90EF90DF9008950F931F93CF9346
:100A4000DF931F92CDB7DEB782E0898342E450E0A6
:100A50006DE172E080E80E94F6040E943304DC013C
:100A600012960D911C9113970115110589F0D8016B
:100A7000ED91FC910280F381E02DBE016F5F7F4F0D
:100A8000C801099597FD04C0F80100851185ECCFD8
:100A900089810F90DF91CF911F910F91089561503F
:100AA00030F02091F100FC0120830196F8CF2898C6
:100AB00084E6809312060895E9EEF1E0A0E0B8E044
:100AC00000800EBC8111012C1197A0FDFDCF019279
:100AD000B9F70DB408951F920F920FB60F9211241B
:100AE0008F939F938091E1009091E100937F909389
:100AF000E10083FF0FC01092E90091E09093EB00BA
:100B00001092EC0092E39093ED001092E80198E0CF
:100B10009093F00082FF20C093E09093E9009091C1
:100B2000F200992319F09AE39093E800909105065A
:100B3000992339F0909105069150909305069923D9
:100B400089F190911206992339F0909112069150F3
:100B500090931206992341F184FF10C08091E20026
:100B60008E7E81608093E2008091E1008F7E809391
:100B7000E1008091E7018E7E806111C080FF16C088
:100B80008091E2008E7E80618093E2008091E1009E
:100B90008E7E8093E1008091E7018E7E816080935C
:100BA000E70104C05D9ACDCF289AD6CF9F918F914F
:100BB0000F900FBE0F901F9018951F920F920FB6B7
:100BC0000F921124CF92DF92EF92FF920F931F9317
:100BD0002F933F934F935F936F937F938F939F9345
:100BE000AF93BF93EF93FF93CF93DF93CDB7DEB770
:100BF0006C97DEBFCDBF1092E9008091E80083FFC3
:100C0000FBC168E0CE0145960E944F0582EF8093BC
:100C1000E8008D8987FF05C09091E80090FFFCCF28
:100C200003C09EEF9093E800982F907609F0C6C01D
:100C30009E894F89588D2F89F88C91110CC080386E
:100C400029F48091E6018093F10002C01092F10036
:100C50001092F10045C1913051F4811141C14130F0
:100C6000510509F03DC18091E6018D7F0BC09330A5
:100C700061F4811135C14130510509F031C18091D4
:100C8000E60182608093E6012BC1953049F48091A2
:100C9000E80080FFFCCF822F80688093E30020C1B2
:100CA000963009F05EC00B8D1C8D22E01092E90099
:100CB0001092030610920206F21232C01092010640
:100CC000109200060E941D0599E0BE016F5F7F4FE4
:100CD000DB01E92F1D92EA95E9F79983FA8291E009
:100CE0009E8390EA98879AEF998720910206309127
:100CF0000306275F3F4F3C832B838D831092E900CF
:100D0000109203061092020610930106009300064B
:100D100049E050E080E00E94F6040E941D05E0C01A
:100D200010930106009300060E943304DC01129622
:100D30000D911C9113970115110509F4BBC0D80141
:100D4000ED91FC910480F581E02DBE016B5E7F4F3B
:100D5000C8010995009709F0C7C0F8010085118501
:100D6000EACF973009F445C1983021F481E08093AF
:100D7000F100B6C0993009F0B3C0837009F039C1F1
:100D8000EFE1F1E081E031E096E32081211109C03B
:100D90008EE78093EA001092EA008F898093E80141
:100DA0009FC08093E9003093EB0021912093EC00E9
:100DB0009093ED008F5F873041F7EACF8B8D9C8D4C
:100DC0001092E90010920306109202069093010619
:100DD00080930006898D811153C08E899D89913A37
:100DE00049F4813209F005C147E050E06AE071E062
:100DF00080E0BBC0913209F0FCC0833269F48F8976
:100E0000988DA0E0B0E08093060190930701A09335
:100E10000801B093090164C0803269F48091E80050
:100E200082FFFCCF67E08AE091E00E944F058BEFE4
:100E30008093E80055C0823209F052C08F898093B8
:100E40001101EEEFFFE7859194918B3F9C4D19F0D6
:100E5000E0E0F8E002C0EEEFFAE080910A01909144
:100E60000B01A0910C01B0910D01803B9440A105B4
:100E7000B10509F09EC08091110180FF79C099C031
:100E80000E943304FC01028113810115110509F44C
:100E9000B0C0D801ED91FC910190F081E02DBE0130
:100EA0006B5E7F4FC801099581111AC0F80100855A
:100EB0001185EBCFF1E0FF1609F44EC0F3E0FF120D
:100EC00098C08F89882309F44AC0823089F440E8A9
:100ED00060E181E892E00E942D11882309F489C025
:100EE0008EEF8093E80088C018161906CCF381C0F5
:100EF000813029F440E86BE085E792E0ECCF833065
:100F000009F077C00E943304DC011296ED90FC904A
:100F100013978E010F5F1F4F6801E114F10479F000
:100F2000D701ED91FC910680F781E02DB801C70152
:100F30000995080F111DF701E084F184EECFD80167
:100F40001C92F60101900020E9F73197BF016C195E
:100F50007D0940E0C601BFCF63E672E002C06FE5E5
:100F600072E0FB01449150E080E80E94F604B8CFA3
:100F7000EE3F2AE0F20751F0808191818737A7E7A1
:100F80009A0721F09093FF0A8093FE0A87E797E77C
:100F90009183808380916000809304069BE088E1C8
:100FA0000FB6F894A895809360000FBE90936000F0
:100FB00097CF808191818737974709F091CFA89586
:100FC0008091600088618093600080910406809326
:100FD0006000EE3FBAE0FB0739F08091FE0A909185
:100FE000FF0A918380837CCF1092FF0A1092FE0A41
:100FF00077CF81E28093EB006C960FB6F894DEBF5A
:101000000FBECDBFDF91CF91FF91EF91BF91AF9117
:101010009F918F917F916F915F914F913F912F9110
:101020001F910F91FF90EF90DF90CF900F900FBE28
:101030000F901F9018958F929F92AF92BF92CF9270
:10104000DF92EF92FF926B017C010E941F0D4B011A
:101050005C01C114D104E104F104F1F00E941F0D00
:10106000DC01CB0188199909AA09BB09883E934084
:10107000A105B10570F321E0C21AD108E108F10819
:1010800088EE880E83E0981EA11CB11CC114D10407
:10109000E104F10419F7DDCFFF90EF90DF90CF90DE
:1010A000BF90AF909F908F9008958F929F92AF9234
:1010B000BF92CF92DF92EF92FF920F931F93CF9345
:1010C000DF936C017B018A0180911101882309F46F
:1010D0005CC08091E801882309F457C08091E70142
:1010E00080FF05C08091E00082608093E000E8010D
:1010F000B12C8AEFA82E93E0892E2AE3922E209716
:1011000011F4BB20D9F10E94220481110AC0AA94D3
:10111000AA20D9F161E070E080E090E00E941B0815
:10112000EECF282F30E0C217D3070CF48C2F9FB7D7
:10113000F8948092E9002091E80025FF1DC0282F37
:1011400030E0C21BD30BF701815020F04191409356
:10115000F100FACFE20EF31EBB2019F09092E800E6
:101160000AC08091E80085FD07C09092E800BB248A
:10117000B394209709F0B12C9FBFC1CF5D9884E64E
:10118000809305061016110644F081E090E0F60108
:101190009383828380E090E001C0C801DF91CF910A
:1011A0001F910F91FF90EF90DF90CF90BF90AF9085
:1011B0009F908F900895CF92DF92EF92FF920F93BE
:1011C0001F93CF93DF936C017A018B01C0E0D0E0D5
:1011D000CE15DF0581F0D8016D918D01D601ED911D
:1011E000FC910190F081E02DC6010995892B11F049
:1011F0002196EECF7E01C701DF91CF911F910F9114
:10120000FF90EF90DF90CF9008952F923F924F92F2
:101210005F926F927F928F929F92AF92BF92CF9286
:10122000DF92EF92FF920F931F93CF93DF93CDB78F
:10123000DEB728970FB6F894DEBF0FBECDBF9D83F3
:101240008C836A30A1F4DC0155962C915597519608
:101250008D919C915297B8E02B9F800D911D112488
:10126000EC81FD81928B818B108A1786C6C06D3010
:1012700009F4C3C0AC81BD811F968D919C9150979C
:1012800080389105BCF0EC81FD812589422F50E02A
:1012900087859089F6E02F9F800D911D1124AC81E8
:1012A000BD8150969C938E931F9756962C91211139
:1012B0008FC0A3C0EC81FD81E188F288F0E4EF16D5
:1012C000F1040CF7AC81BD815596BC91BE839C01A5
:1012D000E5E0BE9F200D311D1124121613069CF669
:1012E000CB2ED12C970158E0B59F200D311D112434
:1012F0001216130644F6AC81BD8154965C90549747
:1013000053964C90B5E06B9FF00111249F012E562F
:101310003D4F38872F83912C30E1732EEF81F88574
:101320008490F5E09F1201C0812C870128E0622E95
:1013300080FE02C0542D01C0552D511103C054141C
:1013400009F433C09C01F52FF170322E622F681B17
:101350004E81641750F5B801A62FA01B5E81A5171A
:1013600008F520383105D8F460347105C0F45B010C
:10137000A501E1E041FDE4E040FDEE0F42FDE29514
:10138000487F749ED0011124A30DBA83A983A7516D
:10139000BE4FBC90BE2AF11101C0BE26BC926F5F49
:1013A0007F4FDACF2F5F3F4FD0CF86946A940C0DDA
:1013B0001D1D6110BDCF93948C0D9D1D2F8138850F
:1013C0002F5F3F4F38872F8336E09312A7CF5BCF35
:1013D0006AEF64039001659F300D112420583F4F40
:1013E0002817390754F48C819D81DC01ED91FC9123
:1013F0000190F081E02D6AE0099581E090E0289667
:101400000FB6F894DEBF0FBECDBFDF91CF911F9115
:101410000F91FF90EF90DF90CF90BF90AF909F9093
:101420008F907F906F905F904F903F902F90089596
:101430000895089580E090E008950E94F9122D9A91
:101440000895BC0180E090E00C941B088FB180955A
:10145000807F669B88601C9B846008950C947A1240
:101460002F923F924F925F926F927F928F929F92B4
:10147000AF92BF92CF92DF92EF92FF920F931F93A2
:10148000CF93DF93CDB7DEB760970FB6F894DEBF8A
:101490000FBECDBFEB82E22EF12CF88AEF869701CA
:1014A000280F391F121613060CF03EC18038910523
:1014B0000CF03AC19B01200F311D121613060CF0DF
:1014C00033C1603471050CF02FC1DB0177FF04C01C
:1014D000AA27BB27A61BB70BA770BB279B0177FFCB
:1014E00002C0295F3F4FE3E035952795EA95E1F784
:1014F00077FF08C02150310968E070E0FB01EA1B6A
:10150000FB0BDF01E02FE695E695E695F0E007702E
:1015100009F03196B9017695762F6627779567950C
:10152000680F791F67517E4F7F01E20EF31EFF8225
:10153000EE82C12CD12CE8E0F0E08F010A1B1B0BDE
:101540001D830C83EE80FF80E216F30609F4ECC0E5
:101550002830310509F4E8C02F3F0FEF30070CF4B5
:10156000D6C08B0100581F4F198708875B014B01BC
:101570003B012C0118011A83098300E010E0EF847D
:10158000F8880E151F050CF0C2C0E0E84E16510495
:1015900009F4BDC057FC9FC02F3FFFEF3F0709F480
:1015A000BFC07801EC0CFD1CEB81E130A9F4F70120
:1015B000E40FF51FE491EE2EF12CF7010A2E02C084
:1015C000EE0FFF1F0A94E2F7FB87EA87F401E08041
:1015D000FA85EF2AF4012CC0FB81F11116C0F70146
:1015E000E40FF51FE491F0E00A2E02C0EE0FFF1F9A
:1015F0000A94E2F77F01E094F094FB86EA86F50115
:10160000E080FA85EF22F50113C0F701E40FF51F22
:10161000E491F0E07F010A2E02C0EE0CFF1C0A9458
:10162000E2F7FB86EA86F301E080FA85EF26F30114
:10163000E082109709F44FC02730310509F44BC000
:101640007801EC0CFD1CFB81F130B1F4F701E40FE3
:10165000F51FE491F0E07F010C8002C0F594E7945F
:101660000A94E2F7FB86EA86E885F985E080FA8548
:10167000EF2AE885F9852EC0FB81F11118C0F7012A
:10168000E40FF51FE491F0E00C8002C0F595E795BA
:101690000A94E2F77F01E094F094FB86EA86E98100
:1016A000FA81E080FA85EF22E981FA8113C0F7011F
:1016B000E40FF51FE491F0E07F010C8002C0F59487
:1016C000E7940A94E2F7FB86EA86F101E080FA8566
:1016D000EF26F101E0820F5F1F4FE885F985319613
:1016E000F987E887E981FA813196FA83E983FFEF88
:1016F0002F1A3F0AEFEF4E1A5E0AFFEF6F1A7F0AAA
:10170000EFEF8E1A9E0AFFEFAF1ABF0A38CF2F5F96
:101710003F4F60587F4FEF84F888CE0CDF1C12CF0C
:10172000109709F08DCFD7CF60960FB6F894DEBF33
:101730000FBECDBFDF91CF911F910F91FF90EF9022
:10174000DF90CF90BF90AF909F908F907F906F90E1
:101750005F904F903F902F900895DF92EF92FF920D
:101760000F931F93CF93DF93853010F080E0A5C0D7
:101770006A30E0F7C62FD0E02AE0829FC00DD11D6D
:101780001124FE01E258FE4F9081DE01A055BE4FAC
:101790007D01911170C09C9191116DC021E0208359
:1017A000C45BDE4F9881992309F3843009F42C93AC
:1017B000162F082F913011F0943081F489858D7F98
:1017C000D82EF1E08F130AC06FEF610F81E0800F18
:1017D0000E94AD0B882311F0F701D08288818130FF
:1017E00011F0843071F48A85823009F447C0843066
:1017F00009F444C08881813009F44CC0843009F474
:1018000049C088818250823080F48B85823011F00B
:10181000843079F461E0610F81E0800F0E94AD0BAC
:10182000882319F081E0D7018C938881825082301F
:1018300010F58A858D7FD82EB1E08B130DC0612FF6
:1018400081E0800F0E94AD0B882311F0F701D08258
:1018500088818250823078F48981813011F084301F
:1018600051F461E0610F802F0E94650C882319F00C
:1018700081E0D7018C93F70180811FC0612F81E047
:10188000800F0E94AD0B882309F4B4CF81E0D7010B
:101890008C93B0CFFE01319780818250823008F066
:1018A000B0CF6FEF610F802F0E94650C882309F481
:1018B000A8CF81E0F7018083A4CFDF91CF911F9162
:1018C0000F91FF90EF90DF900895DF92EF92FF92DB
:1018D0000F931F93CF93DF93853010F080E0A7C064
:1018E0006A30E0F7C62FD0E02AE0829FC00DD11DFC
:1018F0001124FE01E258FE4F9081DE01A055BE4F3B
:101900007D01911103C09C91992319F0F701808109
:101910008EC091E09083C45BDE4F98819923F1F2F1
:10192000162F082F923011F0943089F4FE013B9766
:1019300080818250823058F46FEF610F8FEF800FFB
:101940000E94650C882319F081E0D7018C9388816F
:10195000823011F0843061F4FE013A978081813049
:10196000C1F18430B1F188818230F1F18430E1F14C
:1019700088818D7F813091F4FE013997808181309B
:1019800011F0843079F461E0610F8FEF800F0E94D5
:10199000650C882319F081E0F701808388818D7FB1
:1019A0008130A1F4FE013A9780818250823050F458
:1019B000612F8FEF800F0E94650C882319F081E062
:1019C000D7018C9388818D7F813009F1D7018C916B
:1019D0002EC0612F8FEF800F0E94650C882319F2B3
:1019E00081E0F7018083BFCFFE01319780818D7F39
:1019F000D82EB1E08B13BCCF6FEF610F802F0E9408
:101A0000AD0B882309F4B4CFD701DC92B1CF898123
:101A1000823011F08430D1F661E0610F802F0E9496
:101A2000AD0B882399F281E0F7018083CFCFDF915E
:101A3000CF911F910F91FF90EF90DF9008953FB7E6
:101A4000F8948091680690916906A0916A06B09119
:101A50006B0626B5A89B05C02F3F19F00196A11D66
:101A6000B11D3FBFBA2FA92F982F8827820F911D34
:101A7000A11DB11DBC01CD0142E0660F771F881F7B
:101A8000991F4A95D1F708951F920F920FB60F92A2
:101A900011242F933F938F939F93AF93BF93809184
:101AA000630690916406A0916506B0916606309138
:101AB000670623E0230F2D3720F40196A11DB11DE9
:101AC00005C026E8230F0296A11DB11D20936706CD
:101AD0008093630690936406A0936506B0936606B0
:101AE0008091680690916906A0916A06B0916B0694
:101AF0000196A11DB11D8093680690936906A0937D
:101B00006A06B0936B06BF91AF919F918F913F9101
:101B10002F910F900FBE0F901F901895CF93DF93CA
:101B2000CDB7DEB728970FB6F894DEBF0FBECDBF96
:101B3000789484B5826084BD84B5816084BD85B5A8
:101B4000826085BD85B5816085BD80916E008160B4
:101B500080936E001092810080918100826080935A
:101B6000810080918100816080938100809180005C
:101B700081608093800080919100826080939100C9
:101B800080919100816080939100809190008160AC
:101B9000809390008091C10084608093C100809107
:101BA000C10082608093C1008091C10081608093F8
:101BB000C1008091C30081608093C3008091C00008
:101BC00082608093C0008091C20081608093C200D7
:101BD00080917A00846080937A0080917A0082609C
:101BE00080937A0080917A00816080937A0080915E
:101BF0007A00806880937A001092E8011092E601E2
:101C00001092E7018091D70081608093D70080EA2D
:101C10008093D80089B5806189BD89B5826089BD0E
:101C200009B400FEFDCF61E070E080E090E00E942A
:101C30001B088091D8008F7C80618093D8008091B0
:101C4000E000807F8093E0008091E1008E7E8093B1
:101C5000E1008DE08093E200559A209A81EC809318
:101C60007C0085B1806F85B984B1877E84B984B1E9
:101C7000876E84B95E9A5F988AB1806D8AB9769AC8
:101C80006E9881B3806F81BB899880B38D7080BB63
:101C900080E58CBD81E08DBD85E090E00E94210A49
:101CA0005F9A85E090E00E94210A5E985C98ECE5DE
:101CB000F1E089E691E024912EBD00000DB407FE0D
:101CC000FDCF31968E179F07B1F75C9A81E880931C
:101CD00064008091650081608093650080E00E94CF
:101CE0005C050E94260A87FF24C05C9885EA8EBDA9
:101CF00000000DB407FEFDCF5C9A2E982F982D980A
:101D00008091640080628093640081E083BF889545
:101D100013BEFCCF2D980E94260A8478843871F077
:101D20000E94260A8471843131F188EC90E00E948F
:101D3000210A0E94260A82FDEDCF3AC00E941F0AA6
:101D400088EC90E00E94210A2F9882E090E00E94A7
:101D50007A128F3F29F06FEF82E090E00E948212AA
:101D600084EF91E00E94210A2F9A0E94260A84782B
:101D70008438D9F3D5CF0E941F0A88EC90E00E94E6
:101D8000210A2E9882E090E00E947A12882329F09E
:101D900060E082E090E00E94821284EF91E00E9475
:101DA000210A2E9A0E94260A84718431D9F3BDCF6C
:101DB0000E941F0A82E090E00E942E0A882319F0F8
:101DC0003E9A3F9A02C03E983F9881E090E00E9480
:101DD0002E0A182F147081FF41C011112E98F1EFB7
:101DE000CF2EDD24DA940E94260A86FF05C02E9AA3
:101DF0002F9A0E941F0A32C0112331F044E0C4160A
:101E0000D10411F42E9A2F9881E00E945C05EE24F3
:101E1000E39400E128E54CEA50E0B60184E190E06B
:101E20000E94300A80E00E945C058FE090E00E94F2
:101E3000210A5FEFC51AD50A89E1C816D10499F6BF
:101E4000112311F02F9A2D9880E991E00E94210A28
:101E50000E941F0A89EE95E00E94931182E390E0B0
:101E60000E94210A0E94260A8111F8CF8091640005
:101E70008E7F8093640080917A00806480937A00E2
:101E800080917A0086FDFCCF009178001091790056
:101E90000E941F0D20E030E0980111270027600FFD
:101EA000711F821F931F20916400216020936400A2
:101EB000611571058105910511F00E94711281E291
:101EC0008093F40568E0462E512C612C712C52E36E
:101ED000F52E8FB7F8944091630650916406609197
:101EE0006506709166068FBF8091F505942F981B4B
:101EF000892F9091F605992329F08093F705109288
:101F0000F60587C19091F405891748F48F5F89170A
:101F100008F07FC181E083BF889513BE7AC181E05C
:101F20008093F6054093F5058091F0059091F105B9
:101F300001969093F1058093F0058091F2058093CE
:101F4000F3050E94260A8093F20500910401109186
:101F500005010F5F1F4F1093050100930401E0EB93
:101F6000F1E04F2D11924A95E9F7D12CEEE7F1E01F
:101F70004F2D11924A95E9F76D2D80E00E94AD0B2F
:101F8000D3945AE0D512F2CFE0EBF1E04CE4242EEA
:101F900041E0342ED101819181111C92119682EE83
:101FA00091E08E179F07B9F701113DC088E0E6E187
:101FB000F1E0DE01119601900D928A95E1F7109201
:101FC0004C01109256011092600110926A01109219
:101FD00074013EE7C32E31E0D32EECE4F1E08181C1
:101FE0008193CE16DF06D9F70CE411E00E9423128C
:101FF000A30192010E949012E1E0F0E0EC0FFD1FBE
:10200000E60FF71F8081F8018187065F1F4FC0161A
:10201000D10661F78091E4019091E50101979093D9
:10202000E5018093E4018091F30583FD04C0809174
:10203000F20583FDF6C00E94260A86FF09C0809142
:10204000E4019091E50101979093E5018093E4010B
:102050000E94260A85FF09C08091E4019091E50164
:1020600001969093E5018093E4010E94260A87FF80
:1020700009C08091E2019091E30101979093E301FF
:102080008093E2010E94260A84FF09C08091E20148
:102090009091E30101969093E3018093E201809196
:1020A000F0059091F10583709927892B09F04EC0B6
:1020B0002091E2013091E301121613062CF037FF54
:1020C00005C02FEF3FEF02C021E030E0809100011A
:1020D00090910101A901480F591F8091E40190914D
:1020E000E501181619062CF097FF05C08FEF9FEF3A
:1020F00002C081E090E02091020130910301820F43
:10210000931F4430510534F49A0157FF05C020E075
:1021100030E002C024E030E0309301012093000160
:10212000883091052CF497FF05C080E090E002C054
:1021300088E090E090930301809302011092E50102
:102140001092E4011092E3011092E20180E0E9EEC6
:10215000F1E081118FEF002481938193819381932A
:102160000394D1F71092FB051092FA051092F9052D
:102170001092F80522E0C22ED12C41019FE6A92E33
:10218000B12CF40141914F01FAE1F49FA001112417
:1021900045565E4FEE24E3940DE02DE0B601C501F7
:1021A0000E94300A4CE0A41AB10857EFA5165FEF61
:1021B000B50639F78AE0280E311C9CE0C90ED11C07
:1021C000EEE3CE16D104C9F6209100013091010151
:1021D0009CE0929FB001939F700D11246E5F7F4F22
:1021E000209102013091030148E050E0421B530B63
:1021F000949FF001959FF00D112482E0E82E29E1D3
:1022000049E651E0CF0103960E94300A80E00E9427
:102210005C0580E090E0892B09F45BCE0E94000011
:1022200056CEE0910201F09103012091000130911E
:1022300001014AE0429FC001439F900D1124DF013C
:10224000A80FB91FA45BBE4F2C91E80FF91FE35BE9
:10225000FE4F80818C932083EECEDF92EF92FF922F
:102260000F931F93CF93DF93D82EF92EE42E062FD2
:1022700010E0C8010196880F0E94C80483E00E9404
:10228000C804CD2DDF2D0C0F1D1FC017D10789F0FD
:10229000E7FE03C0FE01849101C088810E94C8044A
:1022A000F82E80E00E94C8048F2121968111EDCF85
:1022B00001C081E0DF91CF911F910F91FF90EF90CE
:1022C000DF900895E3E1F6E01382128288EE93E056
:1022D000A0E0B0E084839583A683B78389E291E090
:1022E000918380838FEF9FEF95878487E9EEF5E0F8
:1022F000138212821186128680E1838710861782EC
:1023000015868BE391E09183808389E491E0958346
:102310008483108A1786128A118A81E0838B148A3B
:10232000858B168A08950F931F93CF93DF938C01AB
:1023300081E090E00E942E0A80FF32C08AE090E0A7
:102340000E942E0A9FEF980F9E3F50F522E330E047
:10235000D80150963C932E931F9728E330E0529675
:102360003C932E935197CBE0D0E0D801ED91FC91B6
:102370000190F081E02D682FC8010995CE010E94DF
:102380002E0A2196C131D10581F780E00E945C05BB
:1023900088EE93E0DF91CF911F910F910C94210A69
:1023A000DF91CF911F910F91089504970C94931191
:1023B0008F929F92AF92BF92CF92DF92EF92FF9255
:1023C000CF93DF93EC01688179818A819B816115CC
:1023D00071058105910521F464E279ED8BE597E0C3
:1023E0002DE133EF41E050E00E94901249015A0183
:1023F0009B01AC01A7EAB1E40E94AF126B017C0122
:10240000ACEEB4EFA50194010E94BD12DC01CB013A
:102410008C0D9D1DAE1DBF1DB7FF03C00197A10907
:10242000B04888839983AA83BB83BC01CD019F7781
:10243000DF91CF91FF90EF90DF90CF90BF90AF9062
:102440009F908F9008958F929F92AF92BF92CF925C
:10245000DF92EF92FF9260911201709113018091CF
:10246000140190911501611571058105910521F403
:1024700064E279ED8BE597E02DE133EF41E050E048
:102480000E94901249015A019B01AC01A7EAB1E4F4
:102490000E94AF126B017C01ACEEB4EFA501940178
:1024A0000E94BD12DC01CB018C0D9D1DAE1DBF1D18
:1024B000B7FF03C00197A109B04880931201909320
:1024C0001301A0931401B0931501BC01CD019F77B6
:1024D000FF90EF90DF90CF90BF90AF909F908F9044
:1024E00008956093120170931301809314019093E7
:1024F00015010895F999FECF92BD81BDF89A9927EB
:1025000080B50895262FF999FECF1FBA92BD81BDDF
:1025100020BD0FB6F894FA9AF99A0FBE0196089565
:10252000052E97FB1EF400940E94A71257FD07D0BA
:102530000E94C21207FC03D04EF40C94A7125095CF
:102540004095309521953F4F4F4F5F4F089590959F
:102550008095709561957F4F8F4F9F4F08950E9492
:10256000E412A59F900DB49F900DA49F800D911D26
:1025700011240895B7FF0C94AF120E94AF12821B72
:10258000930B0895A1E21A2EAA1BBB1BFD010DC0DF
:10259000AA1FBB1FEE1FFF1FA217B307E407F50713
:1025A00020F0A21BB30BE40BF50B661F771F881FEF
:1025B000991F1A9469F760957095809590959B0185
:1025C000AC01BD01CF010895A29FB001B39FC0012E
:1025D000A39F700D811D1124911DB29F700D811D4F
:1025E0001124911D0895EE0FFF1F0590F491E02D29
:1025F000099481E090E0F8940C94FE12F894FFCFD7
:10260000020004008000FFFFFFFF00E10000000067
:10261000000001000000000000000102030400C1EE
:102620008081000000000000004704550868045D38
:1026300004AE046C048A04000000000509DB081ADB
:0C2640000A190A9311FCFF0000D51100DC
:00000001FF
